:020000040000FA
:10000000D8330020D9040000E1040000F902000008
:10001000E5040000E7040000E9040000000000001F
:10002000000000000000000000000000EB040000E1
:10003000ED04000000000000EF040000F1040000E7
:10004000810F0000F30400007D110000F3040000A4
:10005000F3040000F3040000C10C0000F3040000EE
:10006000F3040000F3040000F3040000F3040000B4
:10007000F3040000F3040000F3040000F3040000A4
:10008000F3040000910F0000F3040000F3040000EB
:10009000F3040000F3040000F3040000F304000084
:1000A000F3040000F3040000F3040000F304000074
:1000B000F3040000F3040000000000000000000052
:1000C000F3040000F3040000F3040000F304000054
:1000D000F3040000F3040000F304000089110000A1
:1000E000F3040000F3040000F3040000000000002B
:1000F00000000000F304000000000000F304000012
:1001000000000000000000000000000000000000EF
:1001100000000000000000000000000000000000DF
:1001200000000000000000000000000000000000CF
:1001300000000000000000000000000000000000BF
:1001400000000000000000000000000000000000AF
:10015000000000000000000000000000000000009F
:10016000000000000000000000000000000000008F
:10017000000000000000000000000000000000007F
:10018000000000000000000000000000000000006F
:10019000000000000000000000000000000000005F
:1001A000000000000000000000000000000000004F
:1001B000000000000000000000000000000000003F
:1001C000000000000000000000000000000000002F
:1001D000000000000000000000000000000000001F
:1001E000000000000000000000000000000000000F
:1001F00000000000000000000000000000000000FF
:10020000DFF80CD000F088FB00480047DD5D0000FF
:10021000D833002030B4044654E8000F0D4644E8BB
:100220000053002BF8D1156030BC704730B4044641
:1002300054E8000F40EA010544E80053002BF7D1D1
:10024000156030BC704730B4044654E8000F00EA33
:10025000010544E80053002BF7D1156030BC70470E
:1002600030B4044654E8000F80EA010544E8005326
:10027000002BF7D1156030BC704730B4044654E809
:10028000000F00EB010544E80053002BF7D1156087
:1002900030BC704730B4044654E8000FA0EB0105B1
:1002A00044E80053002BF7D1156030BC704770B4A0
:1002B00004464FF0000054E8006F0D68AE4207BFDF
:1002C00044E80023012044E800630E60002B1CBFBB
:1002D0000020F0E770BC704730B4044654E8000FCB
:1002E00088422CBF451A054644E80053002BF5D13F
:1002F000156030BC70470000094B1EF0040F1CBF96
:10030000EFF309801847EFF308800649064A884250
:1003100001D8904202D88D464FF0000018470000E7
:10032000650D0000D8330020D813002030B450E809
:10033000012F93B2C48923448489A34228BF1B1B85
:100340000489A34202BFBFF32F8F002007E0C3EA56
:10035000020340E80134002CE9D14FF001000A60AB
:1003600030BC704750E8012FC2EA024240E8012148
:100370000029F7D1704730B450E8022F1FFAA2F3DA
:10038000C488A34202BFBFF32F8F00200DE0C489B1
:1003900023448489A34228BF1B1BC2EA034340E8CD
:1003A0000234002CE8D14FF001000A6030BC7047E5
:1003B00050E8022FC2EA224240E802210029F7D188
:1003C0007047034653E8022FD988B2EB324F4FF003
:1003D000000017BF92B241EA014142EA014104E044
:1003E0005A68B2EB324F08BF012043E80212002ADC
:1003F000E8D1704730B4044654E8000F0D4644E895
:100400000053002BF8D1156030BC704730B404465F
:1004100054E8000F40EA010544E80053002BF7D1EF
:10042000156030BC704730B4044654E8000F00EA51
:10043000010544E80053002BF7D1156030BC70472C
:1004400030B4044654E8000F80EA010544E8005344
:10045000002BF7D1156030BC704730B4044654E827
:10046000000F00EB010544E80053002BF7D11560A5
:1004700030BC704730B4044654E8000FA0EB0105CF
:1004800044E80053002BF7D1156030BC704770B4BE
:1004900004464FF0000054E8006F0D68AE4207BFFD
:1004A00044E80023012044E800630E60002B1CBFD9
:1004B0000020F0E770BC704730B4044654E8000FE9
:1004C00088422CBF451A054644E80053002BF5D15D
:1004D000156030BC7047000006488047064800475A
:1004E000FEE7FEE7FEE7FEE7FEE7FEE7FEE7FEE7E4
:1004F000FEE7FEE7A10F0000010200002DE9F05F1A
:100500000546002092469B46884606468146402482
:100510001BE0284641464746224600F0ABF95346C9
:100520005A46C01A914110D311461846224600F08F
:1005300016F82D1A67EB01084F46224601200021CC
:1005400000F00DF817EB00094E41201EA4F1010444
:10055000DFDC484631462A464346BDE8F09F202A64
:1005600004DB203A00FA02F1002070479140C2F10A
:10057000200320FA03F31943904070470048704766
:1005800070B8000010B50446FFF7F8FF0068005D82
:1005900000F0010010BD2DE9FE439946154688463E
:1005A000074601AC022942D3002D40D00020029022
:1005B000A8F101004FF0FF36009022E000FB057229
:1005C00001FB057011464A469047002805DC54F8A7
:1005D0002600304444F8260013E060682A4600FBF9
:1005E000057154F8040C00FB057007E00B7890F8D7
:1005F00000C001F801CB00F8013B521E002AF5D1E2
:10060000764254F8040C61688842D7DC4B462A468F
:100610003846FFF7C0FF54F8040C4B46A8EB000126
:10062000401C00FB05702A46491EFFF7B4FFBDE8D9
:10063000FE8310B5431A934209D28318881803E049
:1006400010F8011D03F8011D521EF9D210BD40EA39
:1006500001039B0703D009E008C9121F08C0042A40
:10066000FAD203E011F8013B00F8013B521EF9D227
:1006700010BDD2B201E000F8012B491EFBD2704739
:100680000022F6E710B513460A4604461946FFF75E
:10069000F0FF204610BD421C10F8011B0029FBD1C1
:1006A000801A704710B5002200E0521C835C8C5CFD
:1006B000A34201D1002BF8D1D8B2E1B2401A10BD4B
:1006C000034611F8012B00F8012B002AF9D1184636
:1006D000704730B505460020034600E05B1C93429E
:1006E00005D2EC5CC85C201A01D1002CF6D130BDDB
:1006F0000FB400B58DB010A909900B9000914FF088
:10070000FF300A9000200C9005480690054807909D
:100710006A4609A80F9900F0D1F80DB05DF814FBF6
:10072000D9080000F70800002DE9FF5F1D464FF0D3
:10073000FF3BD5E9014691465F464FF00008A969A5
:100740007F1C01988847296A824688470028F6D18D
:10075000BAF1FF3F0CD024F4C064002E19DD60060E
:1007600014D5BAF12B0F09D0BAF12D0F0ED103E039
:10077000584604B0BDE8F09F44F48064A9697F1C2A
:1007800001988847761E8246002E02DDBAF1300FAE
:1007900003D0B9F1000F26D032E0A969761E44F4E7
:1007A00000747F1C019888478246002E05DDBAF14F
:1007B000780F06D0BAF1580F03D0B9F1000F10D05E
:1007C0001EE0B9F1000F02D0B9F1100F18D1A969DC
:1007D000761E24F400747F1C0198884782461020FE
:1007E00002E0082000E00A20814609E008FB090831
:1007F000A969761E44F400747F1C019888478246DC
:10080000002E05DD4946504600F044F80028EDDA98
:10081000E96901988847A00502D46FF00100A8E7B4
:10082000E00725D1600613D5600502D5C8F10000A8
:1008300000E0404629680A1D2A600968220501D5A2
:10084000087015E0220701D5088011E008600FE06C
:100850002868011D29600068210502D580F8008004
:1008600006E0210702D5A0F8008001E0C0F8008072
:1008700038467EE7202A04DB203A21FA02F00021E4
:10088000704721FA02F3D040C2F1200291400843A0
:10089000194670473A2800D2303820F02002412A09
:1008A00001D3A2F13700884201D34FF0FF307047E7
:1008B000026811441378016018467047D1600449FA
:1008C00051610449116200211161114600F036B8EE
:1008D000B108000085050000426842B1016811F8C6
:1008E000013B23B1521EC0E9001218467047012196
:1008F000C160881E704742685AB1C368016843B935
:1009000083688B4205D0491E521CC0E900120020AA
:1009100070474FF0FF307047064C074D06E0E06827
:1009200040F0010394E8070098471034AC42F6D336
:10093000FFF76AFC08C7000028C700002DE9F34F45
:100940008BB04FF0000801F10C000C464FF0010B8A
:1009500046460DF1080A019062690121019890470D
:10096000051E2DD0252D2CD0216A8847C0B1626983
:10097000012101989047216A88470028F7D1411E3C
:1009800062690198904700E0761CA1690B9888473E
:10099000216A88470028F7D1E1690B988847DBE78F
:1009A000A1690B9888470746A84201D1761CD3E776
:1009B000E1690B9888477F1C02D1B8F1000F6FD016
:1009C00046E1002762693D463946019890472A284A
:1009D00004D162690121019890470125DFF88492D2
:1009E0006269012101989047A0F130010A290AD2D9
:1009F0004F45E5DC07EB870100EB4107303FDFD4D3
:100A000045F01005ECE7E90601D46FF000476C28CB
:100A10000AD04C2814D0682815D06A280DD0742824
:100A20001CD07A281AD01DE06269012101989047F4
:100A30006C2802D045F0040514E045F002050DE0F5
:100A400045F020050AE06269012101989047682875
:100A500002D045F0080505E045F400656269012112
:100A600001989047C4E9015765283DD019DC582802
:100A70007AD00CDC452837D004DC252826D0412844
:100A800031D131E046282FD047282CD12CE05B28EB
:100A900077D0612828D063287CD0642823D15AE0FD
:100AA000D0E06F2848D008DC66281DD067281BD00E
:100AB000692821D06E2816D127E0702845D07328E8
:100AC00068D0752847D078280DD14DE0A1690B98E2
:100AD0008847054625283FF469AFE1690B988847A8
:100AE0006D1C3FF46AAFB3E023466A466FF0010025
:100AF0000B99AFF300809EE045F040006060A807CE
:100B000023464FF0000236D43EE0E8077FF447AFBB
:100B10002068011D21600068290501D506701BE7CA
:100B2000290701D5068017E7A90703D5F117C0E902
:100B3000006111E706600FE745F040006060A8071C
:100B400023464FF0080216D41EE040F60E0125EAB7
:100B50000100606016E045F040006060A807234691
:100B60004FF00A0207D40FE045F040006060A8078C
:100B700008D5234610226FF001000B99AFF30080D7
:100B800059E007E0234610226FF001000B99FFF7B0
:100B9000CBFD50E04FF000094F464B46632802D092
:100BA0005B2806D040E0E80601D40120A0600127C0
:100BB0003AE062690121019890475E2805D14FF023
:100BC00001096269494601989047216939B90021B4
:100BD0000A46534643F82120491C0829FADBB0B3E2
:100BE000216969B9C11700EBD16253110AEB830186
:100BF00022F01F02821A01200B68904003430B6011
:100C000062690121019890475D28E8D1B9F1000F90
:100C100009D00020514651F82020D24341F820202D
:100C2000401C0828F7DB02AB224600976FF001005A
:100C30000B99AFF3008000280CDA401C08D1BBF1FF
:100C4000000F05D04FF0FF300DB0BDE8F08FFFE78B
:100C50004046F9E7E90701D108F1010806444FF0E1
:100C6000000B79E6CCCCCC0C70B58C1810F8015B7D
:100C700015F0070301D110F8013B2A1106D110F835
:100C8000012B03E010F8016B01F8016B5B1EF9D139
:100C90002B0705D40023521E0DD401F8013BFAE7BF
:100CA00010F8013BCB1A921C03E013F8015B01F82A
:100CB000015B521EF9D5A142D8D3002070BD0000BF
:100CC0002DE9FC410025DFF8948000954FF48076F3
:100CD00001242F460195304606F00EFC38B1D8F8B5
:100CE0000403204203D0304606F0FCFB2543361DAA
:100CF00064007F1CB6B2082FEDD34FF4BE742046BB
:100D000006F0FAFB48B1204606F0ECFB45F0004542
:100D10006A460221002006F04DFB15F0FF0F16D0A9
:100D2000012600242E420ED008EB8401D1F81005D4
:100D3000D1F81015C0F30520094AC1F3014152F85A
:100D4000242002B190477600641C082CEAD3002DC1
:100D500002DA684608F0EEFDBDE8FC810060004064
:100D6000980800201CB5824606F05EFF06F0F0FCF5
:100D70000028FBD136485FEA0A050768364837493C
:100D8000344EA0EB01004FEAD0004FF0010808EB11
:100D9000004470881ED0002821D0204630A1AA69C6
:100DA00006F014FE7088002819D0D5E90201CDE9BB
:100DB0000001D5E9002320462FA106F01FFE708810
:100DC00068B1E8690090D5E90423204638A106F00F
:100DD0000CFE04E018B120463FA106F0F3FD1C48CC
:100DE000001D0068800705D5708818B12046474966
:100DF00006F0E8FDDFF81891002500BF08FA05F0BD
:100E0000384208D059F825202AB1708818B12046F8
:100E100040A106F0DBFD6D1C1A2DEFD3380608D576
:100E2000708830B10A480C30026820463CA106F0B8
:100E3000CDFD380408D5708830B1054810300268FF
:100E400020463FA106F0C2FD504600F087F80000A2
:100E500028ED00E09403002030C8000088C700009F
:100E600048415244204641554C542061742030780A
:100E70002530385800000000202052303A20203021
:100E80007825303858202052313A202030782530CB
:100E90003858202052323A202030782530385820D7
:100EA0002052333A20203078253038580000000096
:100EB00020205231323A2030782530385820204CCA
:100EC000523A202030782530385820205053523A5A
:100ED0002030782530385800537461636B20766970
:100EE0006F6C6174696F6E3A20737461636B20700C
:100EF0006F696E746572206F7574736964652073B1
:100F00007461636B20617265612E000090B900000E
:100F10001402002043617573653A2025732E00008A
:100F20004D656D4D616E616765204661756C74201D
:100F3000416464726573733A203078253038580004
:100F4000427573204661756C7420416464726573E8
:100F5000733A20307825303858000000BFF34F8FA7
:100F600005480168054A01F4E06111430160BFF3DF
:100F70004F8F00BFFDE700000CED00E00400FA0514
:100F800010B507F073FCBDE8104007F0FBBA000095
:100F900002490248091F0968006808470C0200203E
:100FA00030B54FF080520023D2E94C10082906D109
:100FB000CC06C4F80C31C4F81031624C2360082907
:100FC00055D1614B1B68614C23605F4B1B1D1B6837
:100FD000241D23605C4B08331B68241D23605A4B7F
:100FE0000C331B68241D2360574B10331B68241DD2
:100FF0002360554B14331B68241D2360524B183358
:101000001B68524C203423604F4B1C331B68241D3B
:1010100023604D4B20331B68241D23604A4B24332F
:101020001B68241D2360484B28331B68241D236044
:10103000454B2C331B68241D2360434B30331B6806
:10104000424C40342360404B34331B68241D2360E2
:101050003D4B38331B68241D23603B4B3C331B68DE
:10106000241D2360384B40331B68241D236008294E
:1010700004D1030002D1374C354B2360082904D139
:10108000030002D1344CFB232360082908D103005C
:1010900006D1324B92F858521C6865F303041C6069
:1010A000082904D1030002D12D4C8B0123600829AB
:1010B00006D12C480168C90702D06FF00101016018
:1010C0002948016841F470010160BFF34F8FBFF3FD
:1010D0006F8FD2E94C104FF01022082906D1032857
:1010E00004D9D2F80802174920310860D2F800026A
:1010F000002803DBD2F8040200281FDA012008F0E0
:101100009FFB1221C2F8001218480368002BFCD084
:10111000C2F8041201680029FCD0002008F090FBFE
:10112000BFF34F8F10487C380168114A01F4E06129
:1011300011430160BFF34F8F00BFFDE70E490D481B
:10114000086030BD380500400404001020C5004090
:10115000488103008C56004018F50040E40E004022
:10116000409602400004004088ED00E000E40140A9
:101170000400FA050090D0031C0300200148006819
:1011800000470000100100202DE9F0411A48D0F876
:101190000453002601240FE095FAA5F0B0FA80F779
:1011A000B80000F5807007F05DF910B104FA07F09F
:1011B000064304FA07F08543002DEDD1C6F3C0576E
:1011C00026F40005DFF834800AE000BF95FAA5F0A8
:1011D000B0FA80F658F82600804704FA06F08543F6
:1011E000002DF3D109F080FC002F03D0BDE8F041C1
:1011F00003F0B4BEBDE8F0810070024008B2000008
:10120000C11700EBD161074B4A1153F8222021F09E
:101210001F01411A01208840024201D0012070477D
:101220000020704700E100E00FB41CB5024600202A
:1012300007AC00290BD0491ECDE90021054B6A46B9
:101240002146069800F02CF8009A002111701CBC71
:101250005DF814FB031700000FB4084B10B504A988
:1012600002AA039800F01CF8044602A9002000F02E
:1012700053FA204610BC5DF814FB0000191700005B
:1012800002E008C8121F08C1002AFAD1704770474F
:10129000002001E001C1121F002AFBD170470000AD
:1012A0002DE9FF4F8DB00F460546002606E02528A4
:1012B0000BD0DDE90F1290476D1C761C28780028B2
:1012C000F5D111B03046BDE8F08F0024A246A1460A
:1012D0000122EC4900E0044315F8013F203B02FAEB
:1012E00003F00842F7D128782A2810D06FF02F0297
:1012F0002878A0F13001092914D80AEB8A0102EB01
:10130000410144F0020400EB010A6D1CF0E701CF3B
:101310005FEA000A03D544F40054CAF1000A44F01D
:1013200002046D1C28782E2817D115F8010F44F0FF
:1013300004042A280ED06FF02F022878A0F1300183
:1013400009290AD809EB890102EB410100EB0109E7
:101350006D1CF2E757F8049B6D1C28786C280FD0A1
:1013600006DC4C2817D068280DD06A2814D104E078
:10137000742810D07A280FD10DE044F400140AE04C
:1013800044F4801401E044F440146978814202D1AD
:1013900004F580146D1C6D1C2A786E2A1FD00CDC9D
:1013A000632A31D004DC002A8BD0582A11D1A3E063
:1013B000642A68D0692A0CD165E0732A2ED004DC37
:1013C0006F2A73D0702A04D19BE0752A6FD0782AD7
:1013D0006ED01046DDE90F129047761C50E1C4F341
:1013E0000250022806D0032809D0042801CF09D0D2
:1013F000066045E101CFF117C0E9006140E101CF8E
:1014000006803DE106703BE117F8040B8DF8000003
:1014100000208DF80100EB46012003E057F804BBE3
:101420004FF0FF3061074FF0000102D40DE008F1EA
:101430000101884649450FDA8045F8DB1BF80810A2
:101440000029F4D108E008F1010188468142FADB65
:101450001BF808100029F6D1DDE90F23AAEB0800DC
:101460008146214600F036F9304400EB080604E0DE
:10147000DDE90F121BF8010B9047B8F10108F7D214
:1014800021464846F7E00A21C4F302534FF0000B0F
:101490000891022B04D001CFC117032B09D00AE019
:1014A000FF1D27F00707F7E8020108E032E01FE020
:1014B00020E000B2C117042B01D140B2C117031EB6
:1014C00071F1000307DA4FF0000CD0EB0C006CEB6D
:1014D00001012D2302E0230504D52B238DF82430B0
:1014E000012303E0E30701D02023F7E7984658E003
:1014F0000A2110E010210EE010204FF0000B0890A0
:101500000CE010214FF0000B44F004044FF00809E8
:10151000089103E008214FF0000B0891C4F3025337
:10152000022B04D001CF0021032B06D006E0FF1DC3
:1015300027F00707F7E8020103E080B2042B00D18F
:10154000C0B24FF0000823072BD5702A07D0DDF872
:1015500020C08CF0100C5CEA0B0C05D00EE0402390
:101560008DF82430012308E050EA010306D030232F
:101570008DF824308DF8252002239846DDF820C010
:101580008CF0080C5CEA0B0C0BD150EA010301D182
:10159000630706D530238DF824304FF00108A9F1F8
:1015A0000109582A04D038A20B9208AA0A920BE02B
:1015B0003AA2F9E75B46089AFEF7A0FF0B9B9B5CFB
:1015C0000A9A521E0A92137050EA0102F2D10A9846
:1015D000ADEB000000F1200B600702D524F480344D
:1015E00001E04FF00109D94502DDA9EB0B0000E055
:1015F000002000EB0B0141440890AAEB010AE00334
:1016000006D4DDE90F232146504600F063F8064476
:101610004FF0000908E009A911F80900DDE90F12EF
:10162000904709F10109761CC145F4DBE0030CD5B4
:10163000DDE90F232146504600F04CF8064404E053
:10164000DDE90F1230209047761C0899481E08905B
:101650000029F5DC08E00A980A990078491C0A91EB
:10166000DDE90F129047761CBBF10001ABF1010BD5
:10167000F1DC21465046DDE90F2300F019F806445D
:101680006D1C1BE609280100303132333435363702
:1016900038396162636465660000000030313233BE
:1016A000343536373839414243444546000000005E
:1016B0002DE9F041044600251E461746880404D44F
:1016C00005E039462020B0476D1C641EF9D5284638
:1016D000BDE8F0812DE9F041044600251E46904604
:1016E000C80301D5302700E02027880404D505E091
:1016F00041463846B0476D1C641EF9D52846BDE802
:10170000F0814A68002A06D00A68531C0B601070EA
:101710004868401E486070470A68531C0B60107090
:101720007047022001F0E0B870B50024064D06E0D5
:101730006868012110F8340006F068FF641C2878FE
:101740008442F5D3002070BD28010020F8B516466C
:101750000C4605460A2A01D20720F8BD07F04EF8CC
:1017600018B907F00FF80028F7D1134F20211348BC
:101770007D603C70BE60FEF783FF0020C7E9040077
:101780000F4E0DE005EBC4003168009181788DF8B3
:10179000011000780B4A694606F084FF0028DCD16E
:1017A000641EE4B2EED2BDE8F84005480021064AC6
:1017B000001D00F067B80000280100208C0B0020FD
:1017C000A4B2000005530000954A000072B606F06E
:1017D0002BFA00BF05F0BCFF0028FBD1144D1549C2
:1017E00015486A88081AC4082AB1012000EB044091
:1017F00012A106F0E7F814480068C00700D000BE48
:101800006888022805D3022000EB04400FA106F0EF
:10181000D9F8BFF34F8F0C48E43801680F4A01F440
:10182000E06111430160BFF34F8F00BFFDE700008F
:10183000A803002058C8000088C7000046617461F2
:101840006C206572726F7200F0ED00E05379737472
:10185000656D207265736574000000000400FA0570
:101860000EB500210091CDE901106A4644F2010055
:10187000FFF7ACFF0EBD0000014803F072B9000095
:101880006801002010B55AB100684FF0FF340129FB
:101890004261C0E9024400D000210161002010BD76
:1018A000072010BD38B5114808235822416800911F
:1018B0000F49006804F078FC002815D10D4A6946EC
:1018C0000D4803F053F904000ED101210A4803F03A
:1018D000D2F90123094A1946074803F01AF90649C3
:1018E000012008390870204638BD0000ACB2000065
:1018F000AC0B0020199B000068010020FFFF7F0057
:1019000070B5044616460D46002000F00BFFD4E9E2
:101910000201C04370EA010004D0002000F004FF7F
:10192000002070BD03F0D4FC401941F10001C4E96E
:101930000201002000F0F8FEA661206900B12561D7
:101940002146BDE87040002008F0C8BD10B504462F
:10195000002000F0E7FED4E90201C04370EA010074
:101960000CD04FF0FF30C4E90200002000F0DCFE94
:101970002146BDE81040012008F0B0BD002000F075
:10198000D3FE002010BD000070B50546054804696F
:1019900005E02946204602F04FF820680468002C34
:1019A000F7D170BDAC01002070B5094804690CE0A6
:1019B000267A002505E02946204600F011FD6D1C21
:1019C000EDB2B542F7D320680468002CF0D170BDA9
:1019D000AC01002070B50A4804690DE0267A0025A4
:1019E00006E000222946204600F038FD6D1CEDB2CD
:1019F000B542F6D320680468002CEFD170BD00001A
:101A0000AC01002070B50849054606200C6907E0C6
:101A10002946204602F010F8062803D121680C68F8
:101A2000002CF5D170BD0000AC0100200068806F73
:101A3000704700007CB504680B46154694F82010EA
:101A40000C34C90705D0A16929B1206AA0B31120BF
:101A50007CBD08207CBDE16EA9420CD31846A16E66
:101A6000FEF7E7FDE06E401BE066A06E6567284468
:101A7000A06600207CBDC4E9063203F002F80546EA
:101A80000F480069CDE90004E26E6AB1A16EA06959
:101A9000FEF7CFFDE16EE069401AE061A0690844FD
:101AA000A0610020C4E91B016946284600F0B6FA8F
:101AB0000028DFD192207CBDFFE7C4E90832F9E7B6
:101AC00018B300000068D0F880007047FEB50468C5
:101AD000054617460E4600200C3400F023FE082E63
:101AE00013D006DC012E10D0022E0ED0042E06D10B
:101AF0000BE0102E09D0202E07D0402E05D0062452
:101B0000002000F011FE2046FEBDE08A0FB13043F8
:101B100000E0B043E082A1222021A270E170002108
:101B2000A180E18002212181E18A61812C6828461F
:101B30000C3402F0DAFD064AA41CD2E90C1200941F
:101B4000CDE90112694600F08FFA0446D8E700009B
:101B500018B300003EB50D460168144691F82010F8
:101B600011F0010F0BD002F083FFA10609D0002174
:101B70000095CDE90141694600F076FA3EBD0820A6
:101B80003EBD0149896AF3E718B30000F8B5044681
:101B900000250FE0002705E0007800F053FA08B1B7
:101BA0001120F8BD3946781CC7B2304600F09CF8C9
:101BB0000028F1D12946681CC5B2204600F0A6F8DD
:101BC0000600E7D100250DE0002703E0007821465C
:101BD00000F03DFA3946781CC7B2304600F084F870
:101BE0000028F3D12946681CC5B2204600F08EF8C3
:101BF0000600E9D1074800E0086801680029FBD128
:101C00000460054869468069009060680268204663
:101C10009047F8BDBC010020C0B200002DE9F04F94
:101C200087B04FF000081D46934689460446DDF80C
:101C300040A04646CDF80C8000E0761C6068012389
:101C400000224768214603A8B8470028F5D140463E
:101C50008DF800800027B84601903BE060680123C2
:101C60006A46D0F804C0214601A8E0476068012315
:101C700005AAD0F804C0214601A8E0479DF8141039
:101C800049451AD1D84514D19DF80000CAF8000082
:101C900005F8010B6A1C85F8009060689DF800301B
:101CA0002146456801A89B1EA847002007B0BDE853
:101CB000F08F08F1010000F0FF0860689DF8003027
:101CC0000022D0F804C0214601A89B1EE0479DF8E1
:101CD00000000744B742C1D30520E7E70148006987
:101CE00070470000AC01002042788A4201D80020F1
:101CF0007047827810440844704742788A4201D87D
:101D0000002070478278104408447047027A8A4263
:101D100001D80020704701EB4101093008447047A9
:101D2000027A8A4201D80020704701EB4101093054
:101D30000844704702484078002800D001207047CE
:101D4000AC01002010B5002000F054F9BDE81040AF
:101D5000802000F04FB910B5002000F04DF9BDE82B
:101D60001040802000F048B970B50D460146287833
:101D700006240B2813D007DC07284CD2DFE800F03C
:101D80004B0D0F114B2739000C2825D00D2825D0DD
:101D90000E282CD085283ED110E0032014E000242A
:101DA00039E0244804F042FA0028F8D02248012102
:101DB0000160BFF36F8FBFF34F8FF0E71D48001F27
:101DC0000078032827D1042008F0F2FD23E008461C
:101DD00000F050F804461EE0002005E017480068B7
:101DE00010F0010F03D0022008F0E2FDD7E7012038
:101DF000FAE7EB78032B0ED00E48001D02683AB1CB
:101E000000210160416818469047040005D000E0B9
:101E10000E2407F041FC204670BD08F0C1FD28B13A
:101E2000A8780028F7D107F00CFCF4E707F006FCCF
:101E3000F1E70000E00100205C700240380400403F
:101E4000024A0146D2E9000210470000540D00206A
:101E500070B50C46054607F0EBFBA84201D01020F8
:101E600070BD0348D4E90012C0E90212002070BD21
:101E7000DC0100207FB5054605208DF80000062412
:101E80000DF1010007F0E0FB08F08AFD2949002070
:101E900008609DF8010010F01F0006D001280FD047
:101EA000022826D0032833D106E06946284607F0E9
:101EB000EFFF044606282AD16846FFF7A3FD25E078
:101EC0009DF8050003A900F0A7FA050008D06A46AE
:101ED0009DF80C1000F080FA0446062802D016E0A7
:101EE000102415E06A469DF80C10284608F0E4F826
:101EF0000CE09DF80500010705D0694600F058F890
:101F00000446062803D1684608F040F8044624B188
:101F100007F0C2FB04B0204670BD08F041FD30B1AF
:101F200007F086FB0028F5D107F08BFBF2E707F0FE
:101F300085FBEFE7E4010020FEB5C08814460E469D
:101F4000A04201D2054600E01546844207D2802017
:101F500007F0AEF9B4FBF0F100FB114068B10020CE
:101F60000096CDE90150002000F0DCFB694680209E
:101F700000F07AF8040002D006E00120F0E70549FD
:101F80008020FFF765FF0446002000F0CDFB2046CF
:101F9000FEBD000054B3000008B1402101600148BB
:101FA00070470000A80D002007F07EB807F098B831
:101FB00010B50C46010600F00F02092A09D200F004
:101FC0000BF8006828B141680A682146BDE8104056
:101FD0001047102010BD0000010600F00F0001D5D1
:101FE000034901E00249483101EBC000704700009D
:101FF0000C0D002007F0B4B810B5044600F00F0037
:10200000082805D2204607F0CDF8204607F080F9D1
:102010002046BDE8104007F0D3B8000070B50C466C
:10202000054607F00DF918B105480078022801D0DF
:10203000082070BD21462846BDE8704007F002B96F
:10204000AC01002010B5FFF7C7FF006810BD10B548
:102050000C46FFF7C1FF04601CB16168096841606C
:1020600010BD0021FBE7000070B50C46054607F0E7
:10207000E7F818B105480078022801D0082070BDA3
:1020800021462846BDE8704007F072B9AC01002037
:10209000F8B5044600782A4D05280BD12948006878
:1020A0002849C0B2091F096811F0FF0F04D10528A3
:1020B00002D1254C207818B3234F6946243F386A53
:1020C00004F085F806001AD020683060002000F087
:1020D00029FB6888E968401A401CF08018480021F4
:1020E0000C3004F0C2F8B080002000F01DFB6946FF
:1020F000386A04F08DF80146204608F05FFFF8BD0D
:10210000AE6905E03168608889688847306846684C
:10211000002EF7D1002000F005FBE86808B96088C0
:102120006880074801210C3004F089F8002000F095
:10213000FBFA0121204608F041FFE868F8BD0000E5
:10214000AC01002084740240E4B2000070B5774C0A
:1021500005460178207809297BD008DC092979D245
:10216000DFE801F06A84B28D9FBBC283D700822969
:1021700027D017DC0A296ED00F296DD080293BD0DB
:10218000812972D16A48FFF75BFE6948FFF7FCFBC3
:102190000D2008F021FFFFF707FCFFF7D3FD606972
:1021A00050B906E0832931D0842937D085295CD104
:1021B00093E06048007A00B1012007F071FA012035
:1021C0007EE0FFF7F1FB07F091FA002008F098F8A5
:1021D0005748401CFFF7D8FB5548401CFFF730FE1E
:1021E0000E2008F0F9FE207800F082FA00283CD09A
:1021F000BDE8704004F02ABE052803D0062803D0AD
:10220000072832D102205BE0082059E003282CD1B6
:1022100007F090FA002828D0042051E0032805D1C7
:1022200007F088FA10B1042008F06AF807F0DEFA27
:1022300000281AD0062043E0032801D0082803D143
:102240003B48801CFFF782FF002008F0C5FE646950
:1022500009E060E009E060E044E02946204601F042
:10226000EBFB20684468002CF7D170BDFFF79CFBA6
:10227000FFF771FD022008F043F8012005E008286F
:1022800009D0052008F03CF8032008F0A5FE2846F8
:10229000FFF7D6FD44E0022008F032F807F072F9AB
:1022A000F2E7032008F098FE2148C01CFFF7C8FDA4
:1022B0001F48C01CFFF768FB20780628A2D1072022
:1022C000BDE8704008F01CB8032008F019F802209F
:1022D00008F082FE2846FFF757FB2846BDE870400D
:1022E000FFF7AEBD0F2019E0A878FFF775FED0E923
:1022F00000232946104698470028B6D0A878010741
:10230000B3D000F00F010829AFD2BDE8704006F04D
:10231000DBBF082002E0092000E00A2008F05CFE94
:102320002846BDE87040FFF72FBB0000AC0100203D
:10233000D1B200009C0D0020FFF7AABEF8B5214CD9
:1023400000250095204EA0684FF4006728B9211D94
:10235000306A03F052FFA060C0B1818869B1C188C2
:10236000B94200D3C580C188ADF80210C188491CAC
:10237000C1808188491E81801FE0FFF7E7FE114977
:10238000306A091D03F02EFFA56019E0E0680028FF
:1023900017D0002000F0C6F96088B84200D36580ED
:1023A0006088ADF80200401C6080064801210C30B6
:1023B00003F06CFF002000F0B7F96846FFF7C6FE97
:1023C0000120F8BDAC010020C0B200000148FFF7B9
:1023D0005FBE0000C0B20000114642681368184793
:1023E00070B5044640680D46C2680AB12046904761
:1023F00020462946FFF78AFC05464678002408E077
:1024000021462846FFF770FC007806F0A9FE641C00
:10241000E4B2B442F4D370BD2DE9F04180460E48D9
:102420000E46056914E02F7A00240DE02146284667
:10243000FFF76CFC0178414504D106B134702846A1
:10244000BDE8F081641CE4B2BC42EFD328680568A3
:10245000002DE8D10020F3E7AC01002070B5044660
:10246000406815460E4683681BB1204698470628EB
:1024700003D1204631460DB1072070BDFFF746FC61
:1024800005464678002408E021462846FFF72CFC44
:102490000078FFF7B1FD641CE4B2B442F4D300202D
:1024A00070BD034600205A681269002A01D0184600
:1024B000104770472DE9F8432E4C054608234FF48A
:1024C00084722B49206A03F06FFE10B10320BDE82F
:1024D000F883294807F05CF80028F8D127490870EC
:1024E0000861486148212648FEF7CAF82448482177
:1024F0004830FEF7C5F8224878307DB195E80E00E7
:10250000183080E80E00002004F024FD18B1852862
:1025100001D0FFF7A5F91B4D002611E004F13801A9
:102520000EC9EDE7002703E000782946FFF78FFD8D
:102530003946781CC7B24046FFF7D6FB0028F3D1D6
:102540003146701CC6B22846FFF7E0FB5FEA000880
:10255000E8D1606800906946284601F06DFA0400F1
:1025600003D007F03BF92046B1E70020AFE70000B9
:10257000040C0020C0B2000039230000AC01002090
:102580000C0D002094B3000030B1012807D00228C0
:1025900008D10548FFF77CBD03480838FAE7024830
:1025A000001FF7E770470000F0B2000010B507F019
:1025B00037F810B107F02AF808B1082010BD044818
:1025C00004F0DCFC08B1FFF74BF9002010BD00005F
:1025D000F4B2000070B50C460F4901EB800555F8C8
:1025E0002400017831B10020FFF7D6FC002255F815
:1025F000241006E0801C70BD521CD2B2491C20F889
:1026000012300B78002BF7D1022101EB4201C9B245
:1026100041F44071018070BDEC01002070B54FF0B5
:10262000805086B0D0F8A810D0F8A40089B241F448
:102630004043009009A20D2101A8FEF7F5FD01AD70
:102640000024094E02E0285D3055641C2846FEF740
:1026500022F8A042F7D806B070BD000025303458EB
:1026600025303858000000000C0E0020074803E019
:10267000016811F0010F07D00168C1F34001002982
:10268000F6D00348FFF704BD70470000380400404F
:10269000C5B20000034808B5806800906846FFF79F
:1026A000F7FC08BDC0B2000030B44FF0000180B1AB
:1026B0000D4B002213F8124084420ED103EB42006E
:1026C000407870B1094A02EB800252F8212042B1F1
:1026D00000E0002030BCFFF77DBF521CD2B2062ABA
:1026E000E8D330BC00207047EFB30000EC010020BD
:1026F000092808D2DFE800F00707050707050505E8
:1027000005000120704700207047092808D2DFE843
:1027100000F00707050707070707050001207047B6
:102720000020704700F002B800F008B872B6024806
:102730000168491C016070470402002003490868D1
:10274000401E086000D162B67047000004020020FD
:1027500070B5054608680C46411C04D004F09BFE89
:10276000206804F0FBFD6068411C02D0002104F0E9
:10277000E3FD2968A069C1F82405607D227D2968F0
:102780001043C1F86C05D4E900122868C0F814257C
:10279000C0F80C15207D012814D1A068411C02D07E
:1027A000002104F0C9FDE068411C04D004F073FE70
:1027B000E06804F0D3FDD4E902122868C0F80825C7
:1027C000C0F8101570BD70B5054608680C46411C70
:1027D00004D004F06AFE206804F0CAFD6068411C61
:1027E00002D0002104F0B1FD2968A069C1F82405D8
:1027F000607D217D2A680843C2F86C05D4E9001287
:102800002868C0F80C15C0F81425207D012814D1C3
:10281000A068411C02D0002104F097FDE068411C33
:1028200004D004F042FEE06804F0A2FDD4E90212F4
:102830002868C0F80825C0F8101570BDF0B5002252
:102840000D4BCA60C1E901230C4B0D4D1446EE1A25
:102850000A600CE003EB0215EF683F79FF2F05D00B
:10286000A04202D1A8680860F0BD641C521CB2EB03
:10287000161FEFD3F0BD000088B6000068C7000047
:1028800088C70000102802D31038C0B2704740F04B
:10289000800070472DE9FC410646C0074FF0000557
:1028A0000ED0104F00240122385D00950023114600
:1028B000019504F0CBFC641C042CF4D300F04EF81A
:1028C000B0070DD5074E0024361D0022305D0323CE
:1028D00000951146019504F0B9FC641C042CF4D356
:1028E000BDE8FC8144B10000094908B5085C0090CE
:1028F000684604F077FDD0F80425009B012199403B
:1029000021EA0203C0F808351140C0F80C1508BDD3
:1029100044B100000249085C012104F0D0BD000070
:1029200044B100000249085C002104F0C8BD000069
:1029300044B10000084908B5085C0090684604F0FE
:1029400051FDD0F804050099C84010F0010000D0F6
:10295000012080F0010008BD44B1000010B5002442
:102960002046FFF7D7FF641C042CF9D310BD10B527
:1029700000242046FFF7D6FF641C042CF9D310BDB9
:1029800010B50246064B4FF0FF3000215C5C9442CC
:1029900001D1084610BD491C0429F7D310BD000021
:1029A00048B100002DE9F0470D468146FFF7E8FFEA
:1029B0000446042836D2DFF874801B481C4EA8F168
:1029C0000C0725B3012D0ED0022D2BD104EB4400B2
:1029D00030444578002D25D0B968002922D02846FA
:1029E000BDE8F047084704EB4401755C0E4471787C
:1029F00049B10E4A4FF48041093A8068FEF780FFE2
:102A000008B987F80390B17808F80410E2E7806805
:102A1000FEF79CFF04EB4401314418F804008D7864
:102A2000A842D7D0BDE8F0874CB100007400002068
:102A3000780800200149086000207047D800002075
:102A400008490E2806D00F2806D0162801D10020EC
:102A5000087070470120FBE7002204210248FFF7BD
:102A600035B8000050000020F4B0000070B500231D
:102A7000042810D20D4D00EB4004012A02D1012997
:102A80000CD00022094E00EB4000304461B1012916
:102A900006D0022906D00723184670BD0E30C2B2F8
:102AA0002A55F9E74270F7E78270F5E778080020C9
:102AB00070B506461E480024C0E90161B00720D564
:102AC0000025012211462846FFF7D0FF6D1C044661
:102AD000042D02D2002CF4D013E094B940F233322A
:102AE00004211448FEF732FE04000AD1FEF71CFE52
:102AF000040006D10F48104A0021001FFEF7C2FE55
:102B00000446F00712D00120FFF7C4FE74B909484B
:102B10000A4A00210C38FEF7B5FE040006D105482C
:102B2000074A01210838FEF7ADFE0446204670BD75
:102B30006800002058B10000092E00000558000070
:102B4000231700002DE9F05F6E4C054600266078E3
:102B5000B34618B184F801B002F03CFE6A4F4FF45E
:102B60007A694FF4C87A4FF00108182D69D2DFE86E
:102B700005F00C1313384754696E727B727BC58461
:102B800084848484B3B6B9BCC5C502F023FE38681A
:102B9000FEF7DCFE06465CE00020FFF7CBFE0028D7
:102BA0004FF0000008D0FFF7B5FE022D02D14FF420
:102BB000E16008E0484606E0FFF7B4FE022D01D1CF
:102BC000C82000E05046410CC0034FF47A728018D0
:102BD00041F10001257052000023FDF78FFC0146F2
:102BE0002AE00020FFF7A6FE00284FF0000004D0E6
:102BF000FFF790FE4FF44870E5E7FFF793FEDFE73D
:102C00000020FFF797FE00284FF0000002D0FFF7EA
:102C100081FECFE7FFF786FED4E70020FFF78AFEAC
:102C200000284FF0000002D0FFF774FE01E0FFF72C
:102C300079FE257040F6CD4100223868FEF760FE2F
:102C4000064646E00020FFF74FFE257008E0002012
:102C500051E025703DE084F801800120FFF744FE3B
:102C6000002240F26661E8E784F801800120FFF766
:102C70003BFE00224FF40051DFE77868FEF766FE66
:102C80000646D5F1110000D02EB10220FFF742FE1A
:102C900084F802B01DE0012816D980B2C82148434B
:102CA000C117C90341EA5041C0034FF47A7280183A
:102CB00041F1000152000023FDF720FC01460022F3
:102CC0007868FEF71DFE06460220FFF72BFE84F80B
:102CD00002803046BDE8F09F02F07CFDB9E702F0CB
:102CE00079FDB4E702F076FD04E002F073FD002008
:102CF000FFF718FE0120FFF715FEAAE7FFF737FEE2
:102D0000A7E70000680000204CB100002DE9F04763
:102D10000546861C91460F464FF0010A0020FFF73A
:102D200001FD1B4C04F21C4860683860D4E90101C5
:102D3000184F401A3968081A0EE00121404603F086
:102D40007EFA02F059FF0146404603F078FAD4E9D2
:102D50000101401A3968081A401C8642EDD8B9F1C1
:102D6000000F03D0052065F3891002E0062065F30B
:102D70009F5061683A68114004EB8101C860606847
:102D8000304460600020FFF7CFFC5046BDE8F0877C
:102D9000B40F0020A002002070B50D4604460A2999
:102DA00002D10D21FFF7F8FFA0682268411CA16045
:102DB0001554D4E90101814204D32046BDE8704096
:102DC00004F04BB970BD000004488168406881423E
:102DD00001D101207047002070470000B40F00208F
:102DE000034630B5074800210478426806E000BF7A
:102DF00002EBC10005789D4203D0491CA142F7DBDC
:102E0000002030BD2801002000780221FFF7CABD54
:102E10004360CA699A420DD38A690260886918447E
:102E20008861086F18440867C869C01AC86100D073
:102E30000120704701F12802026000208B67704773
:102E400070B50646087800240D460F2838D2DFE812
:102E500000F038083838370C1137373237383838FF
:102E60003800304600F075FB2BE02946304607F06D
:102E7000D7F80FE0304601F038FC0146A87800246E
:102E800081421ED00106E9784FF0030004D531B924
:102E900001210CE0044614E021B1012911D00329DD
:102EA000F8D10EE0304600F063FB044600213046C6
:102EB00008F08CF805E00321304608F087F8D0E7E9
:102EC0000624204670BD00002DE9F05FDFF858961B
:102ED0000C7A054689F800400068164688464FF08F
:102EE000000A40F2463254461F46A0F246314FF0E7
:102EF000020B904273D056DCB0F54A7F70D02BDCC9
:102F00004FF4467290426CD013DC40F21531A0F2BF
:102F10001533884273D007DCA8B3A0F5407013388E
:102F20006ED0012871D18BE0012B6BD0022B6CD1BC
:102F3000ACE040F22131A0F22132884271D006DCAF
:102F4000A0F5407019386DD001285ED1C5E0012A86
:102F500069D0062A59D1EBE040F23632A0F2363180
:102F6000904278D015DC40F22F31A0F22F32884207
:102F700071D009DCA0F5407029386DD004286CD0E0
:102F8000052842D11AE145E0052A67D0062A3CD13E
:102F900041E1C91F092938D2DFE801F0F837373796
:102FA00037F7F6F5F40013296FD00DDCA1F103011A
:102FB00010292AD2DFE801F0F6F5F4F3F22929F11D
:102FC000F0EFEE2929EDECEB37290FD00FDC2929A2
:102FD00073D007DC142971D0282916D117E263E1D8
:102FE000B1E05EE02D296AD032290ED13FE24429BA
:102FF00071D008DC3E296FD03F2906D158E22EE07F
:1030000012E002E036E04929F2D00020C5F800A025
:10301000BDE8F09F08202871002F05D840F213303A
:103020000CE068E04CE071E00EB1287930700B20C4
:1030300001242871012F03D84FF4457028602EE039
:103040000EB12879305598F81400641C2871BC42E0
:1030500005D3296023E0BDE082E0A4E0D0E00EB11A
:1030600028793055641C85F804B0BC4202D340F284
:103070001630E3E70EB128793055641C85F804B0AA
:10308000BC4203D340F21730D8E79FE10EB1287954
:103090003055641C85F804B0BC4202D32A6001207C
:1030A000B6E70EB12879305598F81900641C2871DC
:1030B000BC4205D340F21930C0E7B3E192E1C4E16C
:1030C0000EB128793055641C85F804A0BC4204D3A5
:1030D00040F21A30B2E7FFE1DFE10EB12879305556
:1030E00089F801A0641C09E209202871BC4202D3BE
:1030F00040F22130A2E70EB1287930550420641C3B
:103100002871BC4202D340F2223097E70EB12879F1
:10311000305599F801104046641CFEF701FEC9F8CD
:10312000040000782871BC4202D340F2273085E7C2
:103130000EB128793055641C85F804A0BC4202D336
:103140004FF44A707AE70EB128793055D9F8040067
:10315000641CBC424078287102D340F229306DE7EC
:103160000EB128793055D9F8040098F81410641C71
:103170000078814239D185F804B0BC4213D340F2C3
:103180002D305BE785E079E06DE061E04EE011E134
:1031900005E1F9E0EDE0E1E0D5E0C9E0BCE0AFE059
:1031A000A3E097E08BE00EB128793055641C85F8D8
:1031B00004B0BC4202D340F22E303FE70EB1287972
:1031C000305598F81900641C2871BC4202D340F2B3
:1031D0002F3033E70EB128793055641C85F804A0F0
:1031E000BC4223D340F23D3028E798F816108142C4
:1031F000F4D10A202871BC4202D34FF44D701DE770
:103200000EB128793055641C85F804A0BC4202D365
:1032100040F2353012E70EB128793055641C85F83C
:1032200004A0BC42D6D340F2363007E70EB128796D
:103230003055D9F8040098F81410641C00788142C5
:1032400075D105202871BC4202D340F24230F5E628
:103250000EB1287930552420641C2871BC4202D359
:1032600040F24330EAE60EB128793055641C85F807
:1032700004A0BC4202D34FF45170DFE60EB12879AE
:1032800030551020641C2871BC4202D340F24530F6
:10329000D4E60EB1287930550120641C2871BC4257
:1032A00002D340F24630C9E60EB1287930550520E8
:1032B000641C2871BC4202D340F24930BEE60EB114
:1032C000287930552420641C2871BC4202D340F276
:1032D0004A30B3E60EB1287930550120641C2871BC
:1032E000BC4202D340F24B30A8E60EB128793055EB
:1032F0000320641C2871BC4202D34FF453709DE636
:103300000EB12879305598F81600641C2871BC421B
:1033100002D340F24D3091E60EB1287930550420A9
:10332000641C2871BC4203D34FF4547086E65DE000
:103330000EB1287930552420641C2871BC4202D378
:1033400040F251307AE60EB128793055641C85F888
:1033500004B0BC4202D340F252306FE60EB128797D
:103360003055641C85F804B0BC4202D340F253309F
:1033700064E60EB1287930550520641C2871BC42E2
:1033800002D340F2563059E60EB128793055242048
:10339000641C2871BC4202D340F257304EE60EB195
:1033A000287930550620641C2871BC4202D34FF4A2
:1033B000567043E60EB12879305598F81400641C15
:1033C0002871BC4202D340F2593037E60EB1287959
:1033D000305598F81600641C2871BC4202D340F2A4
:1033E0005A302BE60EB128793055641CD9F80410F8
:1033F0004846497889F80210514689F803A075E0DB
:1034000007202871BC4202D340F26E3016E60EB19E
:10341000287930550520641C2871BC4202D340F243
:103420006F300BE60EB12879305599F80310641C03
:10343000D9F80400FEF761FCC9F80800007828718B
:10344000BC4202D340F27330F8E50EB12879305512
:10345000D9F8040098F81410641C0078814211D146
:1034600003202871BC4202D34FF45E70E6E50EB132
:1034700028793055641C40202871BC420DD34FF48C
:103480006170DBE598F816108142F4D185F804B03C
:10349000BC42ECD340F27D30D0E50EB128793055F6
:1034A000641C85F804A0BC4202D340F28530C5E517
:1034B0000EB128793055D9F8040098F81410641C1E
:1034C0000078814224D1D8F82000BC4200782871CD
:1034D00002D340F28A30B1E50EB128793055641C30
:1034E00099F803104846491C89F803108278C9B23C
:1034F000914285D34178491C89F8011099F801104F
:1035000099F800008142FFF4EFAD40F29A3095E562
:1035100098F816108142E3D185F804A0BC42DBD3B1
:1035200040F28F308AE50000D001002008B103206E
:103530007047086810F80C1F202901D0062070473A
:10354000D0F80210C160C1880182017A8174002024
:1035500070470268002102F10C0011845162D162AF
:103560009167D16741673432826681677047000096
:103570002DE9FC47046881460C3401F082FA0746C5
:103580002F4800268068CDE90004E069B0B1D4F886
:1035900078804546404500D205462A4604F1280178
:1035A000A069FDF746F8206F2844C4E91C60A8EB29
:1035B0000500E06660192830A06627E0206F60678C
:1035C0002667E666216A304621B1626AA161C4E9D4
:1035D00007202CE0A06130E004F11802616A82E863
:1035E0004300E26E1AB38A4215D3A36E0A46194607
:1035F000FDF71FF8E16EE069091AE166A16E01446A
:10360000A16660670021484607F0E0FC206A0028B8
:10361000E2D1A66111E0A16EFDF70BF8E06E206724
:10362000E169091AE161A1690818A06105D069463C
:103630003846FEF7F3FCBDE8FC870020FBE70000FE
:1036400018B300004360CA699A4204D38A690260D1
:103650000B67CB6103E001F1280202608B67002059
:10366000704700002DE9F0410546B1B1012912D0A3
:10367000022906D003293CD1BDE8F0410120FFF723
:1036800049B90120FFF74EF9BDE8F04101221A497E
:103690001A48FEF7CFB9032027E0194E19491A48F6
:1036A0007288081A0323C00803EB0044032A07D3D7
:1036B0002846FEF7BBF90246204614A104F086F91D
:1036C0000D4F2846FEF7FEF902467088032804D302
:1036D0003B78204612A104F080F9012206490748F0
:1036E000FEF7A8F90028ECD00220BDE8F041FFF772
:1036F000FBB8BDE8F081000051000020F4B00000EC
:10370000A803002058C8000088C7000042797465EB
:10371000732077616974696E673A20256400000040
:1037200052583A2073697A653A20256C752063688F
:1037300061723A202563000005494FF0FF320828E6
:1037400041F8202002D3084480F858207047000038
:1037500098080020F0B54FF0FF3512B1002308267D
:1037600001E008230C260C4C05E000BF54F8237040
:103770007F1C04D05B1CB342F8D32846F0BD26184A
:103780005DB286F8305044F82310002AF5D1E118D4
:1037900081F85800F1E70000980800200249084429
:1037A00090F93000704700009808002070B58168DB
:1037B00004468A7F002A4DD0C87F00284AD0121ABA
:1037C0000844D5B200F120016A1C1F30FCF731FF1C
:1037D000A068C17F491EC177A068817F491E81779B
:1037E0008DB308221C49206903F02AFC204602F010
:1037F000B3FC8178C078814211D1A06817A2C17F43
:10380000431808212046203303F0C8F8204600F072
:1038100017F929462046BDE8704001F037B8204628
:1038200000F022F9204600F00BF9A0680BA2C17F3E
:10383000431808212046203303F0B0F82046BDE8A5
:10384000704000F007B92069BDE87040044A03A148
:1038500003F0F6BB70BD0000343A00002573000091
:10386000C1B5000070B504468068827FC17F521ADE
:1038700012F0FF053AD0084400F121012A46203019
:10388000FCF7D7FEA068817F491E8177204602F0B1
:1038900063FC8178C078814214D1A06814A2C17FF2
:1038A000431808212046203303F078F8114A10A16C
:1038B000206903F0C5FB6D1EE9B22046BDE87040EB
:1038C00000F0E4BF204600F0CFF8204600F0B8F842
:1038D000A06807A2C17F431808212046203303F0C7
:1038E0005DF82046BDE8704000F0B4B870BD00003F
:1038F00025730000C5B500002DE9F041044680683D
:103900000F46D0F84811C27F11F00106817FA1EB6C
:103910000203DDB20BD07F2901D3002D7ED0A06839
:10392000C17F0844002180F8207066B113E07F2930
:103930007CD2002DF3D0831803F120012A46481CC5
:10394000FCF777FEEBE7A068827F521CD2B2827749
:10395000A068203281544DB3204602F0FDFB8178EF
:10396000C07881420ED1A06831A2C17F43180821DE
:103970002046203303F012F8A81BC1B2204600F005
:1039800085FF21E0204600F06FF8A06828A2C17FE3
:10399000431808212046203303F000F8204600F0A9
:1039A00059F80121204601F04BF80DE03EB1A06826
:1039B000827F521CD2B28277A068203281543A466C
:1039C0001CA1206903F03CFBA168C87F401CC8779C
:1039D000204600F048FF0028204603D0BDE8F04113
:1039E00000F060BF01F061FC00281FD0204602F00B
:1039F000B3FB0546C078A978401A401EC1B22046E4
:103A000000F0D2FE204600F04DFFE878A978401A79
:103A1000C1B2204601F020F8287800E006E0401E00
:103A2000C1B22046BDE8F04101F00AB8BDE8F0811E
:103A300025730000256300004268126810470000EB
:103A40000069024A02A103F0FBBA0000B9B5000008
:103A5000257300000069024A024903F0F1BA000030
:103A6000B3B50000503A00000069024A024903F071
:103A7000E7BA0000B0B50000503A00002DE9F04F61
:103A80004FF0000995B005464F464C4600F0E0FD6A
:103A9000284601F067FD284600F092FE284600F017
:103AA000E2FE10B9284600F0FDFEAA680C2301A929
:103AB0000EA8203202F02AFA03460E9840B15BB1FC
:103AC00049A20221284602F069FF15B0BDE8F08F37
:103AD000284600F0E7FEF8E7494848490026A1EBF0
:103AE00000080DF1040A834613E008D345A00090B6
:103AF00049A202212846019B02F050FFE5E70BEBAB
:103B0000C604606801685AF82900FCF7CBFD18B1BB
:103B1000761CB6EBD80FE8D94FF000000F90A968DB
:103B200048608860C86008616168C86828B14AC98F
:103B3000AA68C2E90360C2E90113606809F10104DF
:103B40004FF00006D0F808800E98844235D25AF81B
:103B5000240033A1FCF7A6FD40B35AF8240031A19C
:103B6000FCF7A0FD10B310A832460090761C0FABF6
:103B70002146404600F028FDFEB10F98E8B10168EB
:103B80005AF82400FCF78EFD0028DDD10F98C1689B
:103B900039B190E84810AA682746C2E903C1C2E9D2
:103BA00001360026641CD0F80880CDE7A868D0F85C
:103BB000481141F00201C0F84811A868036933B107
:103BC0000E980AEB8702C11B2846984704E017A20B
:103BD0000221284602F0E2FEA868D0F8481121F040
:103BE0000201C0F8481170E76E6F74207465726D41
:103BF000696E617465643A2025630A0068C7000035
:103C000028C700003A20636F6D6D616E64206E6F8F
:103C10007420666F756E6400257325730A000000BA
:103C20002D6800002D2D68656C700000506C65617A
:103C300073652073706563696679206120737562AE
:103C4000636F6D6D616E642E0A0000008068D0F8AD
:103C50004801C0F3C00070472DE9F0410446C06838
:103C60008EB00D46406800263246006801A904F077
:103C7000C7F818B100200EB0BDE8F0816DB1019811
:103C800004F090F8A168D1F83801401CC1F838015F
:103C900000F0070001287AD10126204602F05CFAE4
:103CA00005468078012804D9401EC1B2204600F0A4
:103CB000D3FE2878012804D9401EC1B2204600F066
:103CC000E5FD2046FFF7BCFE2EB132A202212046C0
:103CD00002F064FE5BE04FF000080023082202A916
:103CE000019804F06EF804980590BDF80C00ADF84A
:103CF0001800BDF80E00ADF81A008DF81D8002986E
:103D0000082700F00300012802D0022818D032E072
:103D100002983B46860AC0F3C2008DF81C00029848
:103D200008A9C0F38315AA00019804F04AF8206995
:103D3000009005AB2A4608A9304603F089FF1AE037
:103D40000298850DC0F3C2008DF81C00082D01D229
:103D50002E4600E008263B46324608A9019804F0AA
:103D600030F83744AD1B05AA314608A8236903F093
:103D70004FFE002DEAD1019804F014F8E06800220B
:103D800001A94068006804F03BF80028A5D0012094
:103D900071E700004C6F7374206C6F6773202D20E7
:103DA000696E637265617365206C6F672062616321
:103DB0006B656E642071756575652073697A652E13
:103DC0000A00000030B4406804682469A44630BC8E
:103DD00060472DE9FC41002604460127019601AB0E
:103DE000012269462046FFF7EDFF0198002836D0F2
:103DF0009DF800007F28F2D804F001F8A06841780F
:103E000021B101296FD002296ED18DE09DF80050BB
:103E10000D2D09D00A2D07D0D0F84821002161F3DB
:103E20008D12C0F8482122E0D0F84811C1F3871163
:103E300029B1D0F84811C1F38711A94217D1D0F8A0
:103E4000481165F38D11C0F84811A068817F41B118
:103E50002046FFF713FE0221204600F0F5F8BDE8EA
:103E6000FC81C0F84461204600F01CFDF3E7092DF9
:103E70001ED004DC002DB2D0082D04D121E01B2D72
:103E800012D07F2D26D0FCF779FB0068405D10F042
:103E90003E0FA4D02046FFF7D9FE30B39DF80010A6
:103EA0002046FFF729FD9AE7A1680120487096E7B0
:103EB0002046FFF7CBFE002891D0204600F0DEF828
:103EC0008DE72046FFF7C2FE002888D02046FFF786
:103ED0006DFC84E72046FFF7B9FE0028E3D02046BA
:103EE000FFF7C0FC7BE716E019E0A1689DF8002011
:103EF000887F7F28D7D2C87F0B18401CC87783F8EB
:103F00002020A068C17F084480F82060A168887FD5
:103F1000401C887763E79DF800105B2901D00021E1
:103F200000E0022141705AE7002141702046FFF76E
:103F30008DFE002893D09DF80000422840D01BDC65
:103F400033287CD012DC312872D03228ABD1A16862
:103F500003204870A068D0F84811D0F8482127EA1B
:103F6000010161F30002C0F8482138E7342856D037
:103F7000412898D1012124E0462853D01BDC432856
:103F800023D044288FD1204602F0E6F80546007879
:103F9000A979491C884202D1A978012987D0012832
:103FA0004FF0010120462FD000F070FCA168C87FBF
:103FB000401EC87713E748283DD04C2889D1C9E76F
:103FC0000021204601F0BCF909E7204602F0C4F8C0
:103FD000054600786978884203D1A978EA78914249
:103FE00098D0697988424FF00101204606D100F04F
:103FF000DBFB6979204600F049FC01E000F020FD80
:10400000A168C87F401CD4E700F026FD69792046EE
:1040100000F016FDA068C17F491EC177DFE6A168E8
:1040200003204870204600F0CBFBD8E607E0FFE70E
:10403000A16803204870204600F0EBFBCFE6A168A2
:104040000320487046E700008268022911700CD1F5
:104050008268002182F820108268D1778268917787
:1040600002A20321036802F099BC70472573000087
:10407000002801D0FCF70FBB704700002DE9F04F7E
:1040800005460020A7B007461590064620900690EA
:10409000A868817FC1F17F01C9B25FEA010970D0D0
:1040A000C27F00F12001A030FCF7C3FAA868002409
:1040B000C17F084480F8A040FCF760FA21900168B5
:1040C000A8680C23C27F0244D27F895CC0F84441B7
:1040D000AA6801F0010A07A916A8A03201F016FF8C
:1040E0000798FFF7C5FF00F0FF08A3461794189440
:1040F000169818B15044401EB0426CD8BAF1000F67
:1041000001D0002005E007A850F82600FFF7B0FF17
:10411000C0B28046002419A822460090641C17AB48
:104120003146584600F050FA179800286CD00168C4
:1041300007A8424650F8260001F038FB0028EAD0D4
:1041400018987F1CF0B117980068FFF791FF069947
:10415000C0B2884200D90690B9F1000F2ED022A833
:10416000009018AB31465846159A00F02DFA179872
:104170000168189801EB08020168002001EB0803B0
:1041800016E08DE0601E209017980068FFF770FF22
:10419000C0B20690A0EB080048450FDAC0B20CE0B0
:1041A00013F800C0614506D1401C10F0FF0010D08C
:1041B000115C0029F4D1814500D98146601E15901B
:1041C00017981890A7D266A20421284602F0E6FBB1
:1041D0001AE0FF20EFE7002419A822460090641C93
:1041E00017AB3146584600F0EFF9ECB317980028AA
:1041F00056D0016807A850F82600FCF753FA0028AB
:10420000EAD11798D0F808B0BBF1000F09D0179881
:1042100038B11699761CF6B201EB0A008642FFF41B
:1042200067AF002F3CD0012F43D000212846069ACB
:1042300005F012FB209C0DF11C0A19A822460090E3
:10424000641C17AB3146584600F0BEF91798424639
:1042500001685AF8260001F0A9FA40B117987F1EAC
:10426000069A0168284600E01DE005F0F5FA002FE7
:10427000E3D146A2032128462B6802F08FFBAB68EE
:1042800043A208212846203302F088FB284600F08C
:10429000A1FB18984A4601682846414400F03AFAC2
:1042A00027B0BDE8F08F2EA20421284602F076FB4D
:1042B000F6E79BF8000038B119A8009018AB31461A
:1042C0005846159A00F080F918980068FFF7D0FE5C
:1042D000404506D018984A4601682846414400F0F7
:1042E00019FA2198A9680268C87F0B1893F8203042
:1042F000D25CD20715D0897F8842D1D2284601F0FE
:104300002BFF8478A868C17F491CC177284601F03B
:1043100023FF8078A0421FD10121284600F090FBA6
:10432000BEE7D1F84801C00711D0D1F8480120F00C
:104330000100C1F8480120212846FFF7DDFAA868EE
:10434000D0F8481141F00101C0F84811A8E7202138
:104350002846FFF7D1FAA3E7284600F0A3FA9FE723
:104360005461622066756E6374696F6E3A20636F84
:104370006D6D616E647320636F756E746572206F0E
:10438000766572666C6F7765642E0A000A25730085
:1043900025730000002806D08868D0F8481141F045
:1043A0002001C0F84811704770B5044640680D46BA
:1043B00090F8280030B1A0680068FDF7C7FA08B18E
:1043C00008280CD1012685B1606902F02DFE6168D4
:1043D00000220831606902F0E3FD08B1062070BDDB
:1043E000606880F82960002070BD606890F828003F
:1043F00048B9074A0021A068FDF744FA616800281F
:1044000081F82860F0D12046BDE8704005F06EBC10
:1044100041A4000070B5044640680D460260606823
:1044200000224360606880F82820606880F82920B6
:10443000606820220830FCF7FCF82C61074A294606
:10444000606902F0ADFD050005D1E06803F014FFDE
:10445000206903F011FF284670BD000081A500000F
:104460001A60C0681A4603F041BE10B504464069A0
:1044700002F0DAFDA0680068BDE81040FDF766BAFA
:104480007CB51A60044600691A4603F06FFE050009
:1044900025D16069134A0178515C19B1001D04F0FF
:1044A0004FFD02E00C3004F0AFFBC0B9FF200090DC
:1044B00001236A4601A9206903F0A6FE78B9009895
:1044C0000199C2B2606902F09FFD0546606890F8EC
:1044D000290020B11DB92069009903F082FE284609
:1044E0007CBD0000E00000202DE9F8431E46154683
:1044F0008846074600241BE0786808EB04016B46F9
:104500000268D2F80CC02A46E047009804442D1AED
:1045100070B9B868017803290AD000BFD0F84811F3
:104520008906FBD5D0F8481121F02001C0F84811C8
:10453000002DE1D1002E01D000983060BDE8F88355
:1045400070B5084C050009D010342168002907D047
:1045500008682060496828468847F6E70834F4E789
:1045600070BD000084080020054A012120B1012807
:1045700005D19170FFF7E4BF51700020FAE7704752
:104580008408002008B550686A4605A1FCF7B0F819
:10459000044900980E300968C0B2884708BD000081
:1045A00025750000D800002008B550686A4604A1AF
:1045B000FCF79EF8034900980968C0B2884708BD17
:1045C00025750000D80000202DE9F05F1C460A9EEA
:1045D00015464FF0000959B180B3017839B34268EC
:1045E0003146284690473068D8B12660BDE8F09F34
:1045F00014491548A1EB0008B5EBD80F11D2DFF82C
:104600004CA00026834609E00BEBC60778680168DA
:104610005AF82500FCF746F830B1761CB6EBD80FF7
:10462000F2D3C4F80090E1E778682060DEE74068E4
:1046300000EB0210016809B11860D7E7FFE7C3F883
:104640000090D3E768C7000028C7000020030020BF
:104650002DE9F04185680646002495F820000028E1
:1046600011D0A046FBF78AFF0746006804F120013D
:1046700004F10104695CE4B2415CC90705D0002C77
:10468000F4D185F82080BDE8F081641E14F0FF04A9
:104690000FD0A87F021B04F12000291805F120008B
:1046A000521CFBF7C6FFB168887F001B8877B16892
:1046B000C877B2683D68937FD0181F300446002148
:1046C00002E0491CC9B2401E0778EF5DFF07F8D130
:1046D0008442D8D05B1A203302F80380B268907FFE
:1046E000401A9077B168C877CDE710B50021FDF783
:1046F00017FB0021FDF701FB007810BD10B5D0E9D4
:104700000234D1E90220D11AA04101D3012010BD09
:10471000002010BD2DE9F0410446806815460F4683
:10472000827FC17F531A2A44DEB27F2A37D8002DF8
:1047300035D0084400F1200105F120021044721C1C
:10474000FBF777FFA0682A46C17F0844394620302E
:10475000FBF76FFFA0682030FFF78AFCA16811A269
:104760008877A068C17F431808212046203302F0D3
:1047700015F9A068C17F2944C177204600F073F87D
:1047800018B9204600F091FD10B1204600F08AF8DB
:10479000002E04D02046BDE8F04100F01BB9BDE872
:1047A000F081000025730000002904D00A4600694A
:1047B00001A102F045BC70471B5B2564420000006C
:1047C00070B5054601F0C8FC04460078617888425F
:1047D00003D1A078E17888421AD0E178A0788142AC
:1047E00004D9081AC1B22846FFF7DEFF20786178A5
:1047F000884205D9401AC1B2284600F047F804E0C3
:10480000081AC1B2284600F01BF9A868817FC17759
:1048100070BD70B5054601F09FFC044601788079B3
:10482000401C814202D1A07801281BD0A078012829
:1048300004D9401EC1B2284600F00EF92078A179B3
:10484000884206D9401A401EC1B2284600F01EF820
:1048500005E0081A401CC1B2284600F0F1F8A9682A
:104860000020C87770BD10B504460068FFF700FC53
:104870000146A068C27F407E1144B1FBF0F200FB0C
:10488000121008B1002010BD012010BD002904D075
:104890000A46006901A102F0D3BB70471B5B256487
:1048A00044000000006901A102F0CABB0A00000038
:1048B0002DE9FC47002604468DF8046080683546E3
:1048C000B146B0468021A030FBF7DAFE40492069AE
:1048D00002F0B6FB206902F0C0FB00276B46012204
:1048E00001A92046FFF76EFA0098D8B19DF80400A0
:1048F0001B2806D0A16891F8A0101B29EED15228E0
:104900001FD0A26808F1A001505408F1010000F086
:10491000FF08B8F1090F0AD9A168042081F8A09016
:10492000BDE8FC872A494FF6C0101031884700982F
:104930000028D3D17F1CBFB2B7F57A7FCED30D202C
:10494000EEE7A16808F1A0004A4601F80090A168CE
:1049500091F8A1005B2803D081F8A0200B20DFE7AD
:1049600002206FF02F0309E005EB850503EB4505F9
:10497000401C3D44C0B2ADB2802808D200F1A0076F
:10498000CF5D3B2FF0D1401CC0B2802809D30C2052
:10499000C6E700BF06EB860603EB46063E44B6B20A
:1049A000F1E700F1A007CF5D002FF3D1FA20FA2E36
:1049B00001D9087500E00E75FA2D02D9A168887535
:1049C00001E0A0688575A06880F8A0200020A7E716
:1049D000D1B5000070B5054601F0BEFB04468078F5
:1049E000E178884201D1012600E000262846FFF741
:1049F0003AFF18B9284600F058FC10B12846FFF7D6
:104A000051FF1EB160782178401A12E0E078A17859
:104A1000401AC1B2284600F01FF820786178884219
:104A200006D9401AC1B22846BDE8704000F008B867
:104A3000081AC1B22846BDE87040FFF727BF000042
:104A4000002904D00A46006901A102F0F9BA7047B2
:104A50001B5B256443000000002904D00A4600695E
:104A600001A102F0EDBA70471B5B25644100000014
:104A700010B50121FDF754F90021FDF73EF900784A
:104A800010BD10B50121FDF74BF90121FDF735F9F6
:104A9000007810BD70B500240F4D10E0686800EB81
:104AA000C406307803F066FE7178012901D0012137
:104AB00000E000214140307800F008FB641C2878B9
:104AC0008442EBDBD5E90401084303D0BDE8704024
:104AD00005F020BD70BD00002801002010B50021A8
:104AE000024801F0C2FB80F3100010BDD01300207B
:104AF0004FF480328A400168C1F848230068C0F84A
:104B0000082370474FF4A07202EB810189B200F0D4
:104B100049BB2DE9F04105460E464FF4A07000EB6D
:104B2000860081B228684FF48034B440984622F061
:104B30007F47C0F808432868C0F84843286803F056
:104B4000C1FB286800EB8600C0F840752868C0F8F3
:104B50004443B8F1000F02D02868C0F80443BDE810
:104B6000F0810068D0F804057047000070B5437903
:104B7000274C2A4D44F823204279231D03EBC2021F
:104B8000254C1679234A121BD40846B1688808269A
:104B900002283AD3022000EB044021A133E006684A
:104BA0000A88C6F8082590F904208978002A4FEA77
:104BB000411104DB02F1E02282F8001405E002F06A
:104BC0000F0202F1E02282F8141D90F90410012274
:104BD000002909DB01F01F0602FA06F649098900DF
:104BE00001F1E021C1F800614179002603EBC10128
:104BF0000A71417943F831006888032805D30320FE
:104C000000EB04400FA102F0DDFE304670BD000055
:104C10000802002000C8000088C700007C030020B4
:104C200052544320696E7374616E636520616C72C7
:104C30006561647920696E697469616C697A65641B
:104C40002E0000005254433A20696E697469616C09
:104C5000697A65642E00000090F90400002809DBE1
:104C600000F01F02012191404009800000F1E02086
:104C7000C0F8001270470A46022100F01DBA4FF436
:104C8000827100F08FBA00680121016070470068EE
:104C90000121416070472DE9F05F07460C464FF453
:104CA000A07000EB84001FFA80FA38684FF4803659
:104CB000A6409B4622F07F45C0F848633868C0F89C
:104CC00008633868D0F8048500EB8402D2F8409578
:104CD000C2F840855146386803F0F4FAA9EB0800A1
:104CE00020F07F40012806D1102003F087FC5146B8
:104CF000386803F0E7FA3868D0F80485C0F84463F0
:104D0000A5EB080121F07F413868012900EB840000
:104D100010D0C0F840553868D0F804156FF07F4CBB
:104D20006A1A521E22F07F42ACEB0B03934217D358
:104D300062B118E06D1CC0F84055102003F05EFC15
:104D40003868D0F8040540450AD10CE000EB840037
:104D50006D1CC0F840553868D0F80405884202D070
:104D60000D20BDE8F09F01223146384600F0A4F93D
:104D70000020F6E76FEA0061C90F61F31F1070476A
:104D80000106044900D5903100F00F0001EB00103E
:104D9000704700005409002003F0E0BA812003F0BE
:104DA0000BBB822003F008BB832003F005BB8420EB
:104DB00003F002BB852003F0FFBA862003F0FCBAA3
:104DC000872003F0F9BA000038B5882505F07EFE8B
:104DD0002846FFF7D5FF817B0124032915D0006801
:104DE000002811D12846FFF7C5FF8440E1430C4855
:104DF00003F06EFB0B480A49806800900C398DF86F
:104E0000025049686846884738BD2846FFF7B2FF18
:104E10008440E143BDE83840014803F059BB00003D
:104E200024010020D4B1000038B505F04FFE002069
:104E3000FFF7A6FF817B0124032906D0006870B12B
:104E4000BDE838404C2003F02FBB0020FFF792FF55
:104E50008440E143BDE83840094803F039BB0020F5
:104E6000FFF788FF8440E143054803F031FB054824
:104E70000349C0680C39009049686846884738BDC6
:104E800024010020D4B10000012003F0B1BA0220B7
:104E900003F0AEBA032003F0ABBA042003F0A8BAC3
:104EA000052003F0A5BA062003F0A2BA072003F0FC
:104EB0009FBA000038B5082405F008FE2046FFF729
:104EC0005FFF817B032915D00068002812D120469E
:104ED000FFF750FF01218140C943074803F0F8FA6A
:104EE00006480549406900900C398DF80240496830
:104EF0006846884738BD000024010020D4B1000076
:104F000070B50E4804680460BFF36F8FBFF34F8F16
:104F100001260CE094FAA4F0B0FA80F52846FDF7DB
:104F2000B1FC06FA05F18C43294605F077FF002C09
:104F3000F0D1BDE8704005F0D7BD00006C740240B0
:104F400010B5054CA078FFF715FF0146A078BDE825
:104F5000104005F063BF000018010020F8B51A48A2
:104F600000681A4DC6B2A878FFF704FF012404FABE
:104F700000F12889EA68C04380B21043014202D0A0
:104F8000A87805F0A5FE06F08000A8700020FFF7C5
:104F9000F1FE04FA00F68020FFF7ECFE04FA00F0C0
:104FA00006430A48F1430C3003F092FA8020FFF7E1
:104FB000E1FE8440A86804430548AC60006A0090A4
:104FC000696868468847F8BD80740240180100206F
:104FD000D4B1000038B5002000900F480068ADF84B
:104FE00002008820FFF7C6FE012505FA00F40A48F2
:104FF0006038006840B1C10301D4401C04D00820CF
:10500000FFF7B8FE85402C43044988682043886038
:1050100049686846884738BD20750240180100205D
:1050200070470000F8B518480568284603F02AFACA
:10503000BFF36F8FBFF34F8F144E154CE80506D5A5
:1050400001206070706A0090616868468847A80512
:105050004FF0000705D56770B06A00906168684638
:10506000884768050ED5607800280BD0677009491D
:1050700001200860582003F017FAF06A0090616878
:1050800068468847F8BD000000740240D4B10000B3
:105090001801002008750240054908B50020487035
:1050A000887004484068009049686846884708BD91
:1050B00018010020D4B100000368C3F84413002A8B
:1050C00002D00068C0F80413704700002DE9F047D3
:1050D0000E463249804601EB5001C007097801D0E5
:1050E0000F0901E001F00F07424601200021FBF704
:1050F00036FADFF8AC9004460D46052F4BD2DFE8B8
:1051000007F0031419262A00002E44D0012140463E
:1051100005F08EF80020FDF705FB4846D0E90412A3
:105120000C431543C9E9044530E00EB1022114E0F7
:10513000002112E04EB10321404605F079F84046C7
:10514000BDE8F047012105F04FBF012105E0002E29
:1051500021D1042101E02EB103214046BDE8F047F2
:1051600005F066B80021404605F062F8002140468F
:1051700005F03AFF0020FDF7D5FA4A46E043D2E9B0
:105180000434184024EA0501C9E90401BDE8F047E8
:105190000020FDF7C9BABDE8F08700008C0B0020A5
:1051A0002801002010B5006842581AB103F08AF8AF
:1051B000012010BD002010BD2DE9F05F17460E0044
:1051C000814670D013B1F9B2FFF73AFC0024FBF727
:1051D000D5F98246006800E0641C315D415CC90776
:1051E000FAD100253046FEF743FFD9F80810001B1E
:1051F0004A7ED11B814228D306EB040805E000BF9C
:1052000018F805100A290CD06D1C8542F8D3311905
:10521000D9F8100001F014FF4846BDE8F05FFFF731
:1052200041BBD9F8100001F018FF414600232A467F
:105230004846FFF759F92C444846641CFFF732FBF7
:10524000F9B24846FFF7FCFBE1E78B46DAF80010BD
:1052500006EB040818F805000B5CDB0702D0AB4630
:105260000A2804D0E819904201D26D1CF2E7D9F85F
:10527000100001F0F2FE414600235A464846FFF76F
:1052800033F95C44DAF8000000E0641C315D415CF5
:10529000C907FAD14846FFF705FBF9B24846FFF7C0
:1052A000CFFB9EE7FFE7BDE8F09F10B5044600681E
:1052B000FEF7DEFE0146A068827F407E1144B1FB0E
:1052C000F0F200FB121008B1002010BD012010BD4B
:1052D00010B50B48FFF745FC094A083AD2E90434F7
:1052E000C018D2E9063244F10001C31A71EB020280
:1052F00004D24FF08072801841F1000110BD00000F
:105300006801002010B5C0B2FDF76AFD04460078C0
:1053100003F030FA01466078012801D0012000E056
:10532000002090EA010F08D00449D1E904010843A4
:1053300003D1BDE8104005F0EDB810BD28010020F4
:10534000FEB5002604460096019602968068E9B3F1
:10535000D0E950128A4272D0D0F83C0100286ED0B9
:105360002046FFF756FAA068D0F84451002D69D0C6
:10537000002309226946284602F023FDA1689DF812
:1053800008500098C1F84401A06800230922D0F811
:105390004401694602F015FDA1689DF80820092323
:1053A000D1F844012031521C02F00BFDA1689DF898
:1053B0000800C877A1689DF8080088779DF8080064
:1053C000A84202D22046FEF73BFB00E00BE0A368B8
:1053D0002BA208212046203301F0E0FA2046FFF7F7
:1053E00042FA68BB43E0D0F84401002847D0204689
:1053F000FFF70FFAA06800230922D0F8440169469C
:1054000002F0DFFCA0680199C0F84411A0680029EF
:10541000857FB9D1A030FEF72BFE0028A06805D00B
:1054200000F1A0012030FBF74BF901E080F820608B
:10543000A0682030FEF71CFE8DF80800B6E71EE0DD
:105440001AE0FFE72030FEF713FE10F0FF05A0681A
:10545000D0F83C11C0F84411A06805D000F120013B
:10546000A030FBF72DF98FE780F8A0608CE720468D
:10547000FFF71BFF002802D02046FFF713FAFEBDFE
:1054800025730000FEB50D46816804460026D1F85C
:105490003C0138B300230922694602F092FC0195D1
:1054A000A06800230922D0F83C01694602F091FC73
:1054B0000196A068D0F83C110091807F8DF808001B
:1054C000A068C0F83C51002309226946284602F032
:1054D00080FCA168092328468A7F2031521C02F0F3
:1054E00078FCFEBDC1F83C51A068C0F84051009660
:1054F0000196A068807F8DF80800E4E7FEB50446B9
:105500008068D0F84061002E28D000230922694627
:10551000304602F056FCA16801980025C1F8400110
:10552000009501952B46092269463046029502F006
:1055300050FC304602F017FCA168D1F8400170B170
:1055400000230922694602F03CFC0095A068002374
:105550000922D0F84001694602F03BFCFEBDC1F8CB
:105560003C51FEBDFEB5044680682030FEF780FD4C
:1055700010F0FF05A0684FF00006C0F8446133D07A
:10558000A068D0F83C01E0B100230922694602F08E
:1055900018FC9DF80820AA4213D1A068092300F145
:1055A000A001D0F83C01521C02F00BFCA06800F1F5
:1055B000A0012030FBF776F80028A06880F8A060F2
:1055C00012D000260A352946606902F09CFB0100D2
:1055D000204604D003B0BDE8F040FFF753BFFFF70B
:1055E0008DFF761C082EEED3FEBD000000B589B0FD
:1055F0001348FDF71FFA08B1FCF732F920221149D0
:1056000001A8FBF716F80620019008200290002060
:105610008DF81800032000900A4801231A4601A9BA
:105620003C3801F027FB08B1FCF71AF905483C3873
:1056300001F0D8FB002801D0FCF712F909B000BD39
:10564000412A000018B100002DE9FC5F0E008346DE
:10565000DDE90C47C6F1000098469246814600D429
:105660000846012503E000BF90FBFAF06D1C504591
:10567000FADAA84500D9454624B1002E01DB7807A7
:1056800000D5641EB80702D5B8F1000F0AD0F8079C
:1056900008D13CB1A54205D220215846641EFDF731
:1056A0007BFBF6E7002E02DA4E462D2102E078075A
:1056B00003D52B215846FDF76FFB07F003000228A6
:1056C0000BD1B8F1000F08D13CB1A54205D2302171
:1056D0005846641EFDF760FBF6E7CDE900474346F8
:1056E00052463146584605F001F9BDE8FC9F0000DE
:1056F00070B50D46044600684FF4887102F028FE2C
:105700004FF49071206802F023FE4FF492712068EC
:1057100002F01EFE4FF4A271206802F019FE4FF451
:10572000AC71206802F014FE20681249C0F804131E
:105730002068690740F30730090E002804DB00F1F8
:10574000E02080F8001405E000F00F0000F1E020F8
:1057500080F8141D206840F30730002809DB00F0B2
:105760001F02012191404009800000F1E020C0F8B3
:10577000001170BD1003420002460020126853075A
:1057800013D502F00300012802D002280CD105E055
:10579000C2F383100B68801C184404E002230868DD
:1057A00003EB9252104408600120704710B5FAF7DD
:1057B00090FF08B1002010BD012010BD0268134603
:1057C00002E08A4204D01268002AFAD10B6001601C
:1057D000704700000A4810B5807860B1002401E0ED
:1057E000022C06D02046FDF795F8641C042CF7D354
:1057F00010BD0324F6E7BDE81040FDF7AFB8000088
:105800006800002003480179C90702D00078FDF73D
:1058100099B9704768000020014B00F0F5BD000009
:10582000E5590000014B00F0EFBD0000B15B000046
:10583000014B00F0E9BD0000B95B0000014B00F036
:10584000E3BD00009D5C00007CB5144605460129BF
:1058500002D001F009FA38B102B02846BDE8704024
:105860000022114601F0C2B8616805A0CDE900012F
:1058700009A202212846236801F090F87CBD0000AF
:1058800020756E6B6E6F776E20706172616D6574DE
:1058900065723A200000000025733A257325730DC8
:1058A0000A0000002DE9FC41074601F0DDF938B19E
:1058B00002B03846BDE8F0410022114601F096B82A
:1058C0001248134E801B050900241AE006EB041051
:1058D000C2681179FF2903D0527942B10DA207E0C5
:1058E00083680EA20821384601F058F808E013A298
:1058F000CDE90021836814A20821384601F04EF852
:10590000641CAC42E2D3BDE8FC81000088C7000003
:1059100068C70000656E61626C65640025730D0ADE
:10592000092D205374617475733A20646561637442
:105930006976617465640D0A0D0A0000646973611B
:10594000626C65640000000025730D0A092D205368
:1059500074617475733A2025730D0A092D2049442A
:105960003A2025640D0A0D0A0000000010B5044617
:1059700001F07AF930B120460022BDE8104011460E
:1059800001F034B82046BDE8104002A2022101F027
:1059900005B800004E6F7420737570706F72746577
:1059A000642E0D0A0000000010B5044601F05CF9F9
:1059B00030B120460022BDE81040114601F016B873
:1059C0002046BDE8104002A2022100F0E7BF00001F
:1059D0004E6F7420737570706F727465642E0D0A4B
:1059E000000000002DE9FF4FC86881B01D46007916
:1059F00017004FF00006009057D0072245A12868F5
:105A0000FAF767FE78B1082244A12868FAF761FE28
:105A100000282FD02B6843A2019805B00221BDE8D1
:105A2000F04F00F0BBBF012F02D0022F08D008E0DA
:105A3000019805B041A2BDE8F04F022100F0AEBFD1
:105A40000126DFF8108100240A2258F82410686823
:105A5000FAF73FFE10B1641C052CF5D3052C06D0D7
:105A600004F0FF090224002E51D0002419E03AA2CC
:105A70006B68D1E7012F4FF00009F6D0012446E012
:105A80004A462146009800F02DFB48B900212046E7
:105A900002F0BCF8034638A20221019800F07EFF14
:105AA000641C02F05DF8A042EAD805B0BDE8F08FB2
:105AB0004FF0000A55F824B002F052F88046002654
:105AC00009E00021304602F0A1F820225946FAF7F9
:105AD00000FE58B1761C4645F3D3464508D04A46E9
