:020000040000FA
:1000000090300020F5040000FD04000015030000FE
:1000100001050000030500000505000000000000C8
:1000200000000000000000000000000007050000C4
:1000300009050000000000000B0500000D05000090
:10004000A90F00000F050000A51100000F0500001A
:100050000F0500000F050000DD0C00000F0500007B
:100060000F0500000F0500000F0500000F05000040
:100070000F0500000F0500000F0500000F05000030
:100080000F050000B90F00000F0500000F0500006C
:100090000F0500000F0500000F0500000F05000010
:1000A0000F0500000F0500000F0500000F05000000
:1000B0000F0500000F050000000000000000000018
:1000C0000F0500000F0500000F0500000F050000E0
:1000D0000F0500000F0500000F050000FD110000D6
:1000E0000F0500000F0500000F05000000000000D4
:1000F000000000000F050000000000000F050000D8
:1001000000000000000000000000000000000000EF
:1001100000000000000000000000000000000000DF
:1001200000000000000000000000000000000000CF
:1001300000000000000000000000000000000000BF
:1001400000000000000000000000000000000000AF
:10015000000000000000000000000000000000009F
:10016000000000000000000000000000000000008F
:10017000000000000000000000000000000000007F
:10018000000000000000000000000000000000006F
:10019000000000000000000000000000000000005F
:1001A000000000000000000000000000000000004F
:1001B000000000000000000000000000000000003F
:1001C000000000000000000000000000000000002F
:1001D000000000000000000000000000000000001F
:1001E000000000000000000000000000000000000F
:1001F00000000000000000000000000000000000FF
:10020000DFF80CD000F096FB004800479D5100003D
:100210009030002030B4044654E8000F0D4644E806
:100220000053002BF8D1156030BC704730B4044641
:1002300054E8000F40EA010544E80053002BF7D1D1
:10024000156030BC704730B4044654E8000F00EA33
:10025000010544E80053002BF7D1156030BC70470E
:1002600030B4044654E8000F80EA010544E8005326
:10027000002BF7D1156030BC704730B4044654E809
:10028000000F00EB010544E80053002BF7D1156087
:1002900030BC704730B4044654E8000FA0EB0105B1
:1002A00044E80053002BF7D1156030BC704770B4A0
:1002B00004464FF0000054E8006F0D68AE4207BFDF
:1002C00044E80023012044E800630E60002B1CBFBB
:1002D0000020F0E770BC704730B4044654E8000FCB
:1002E00088422CBF451A054644E80053002BF5D13F
:1002F000156030BC7047000000B583B002900091DB
:10030000019244F2010071466A4601F051F803B0CF
:1003100000BD0000094B1EF0040F1CBFEFF3098065
:100320001847EFF308800649064A884201D89042F0
:1003300002D88D464FF0000018470000810D0000E4
:10034000903000209010002030B450E8012F93B27C
:10035000C48923448489A34228BF1B1B0489A34268
:1003600002BFBFF32F8F002007E0C3EA020340E87B
:100370000134002CE9D14FF001000A6030BC704715
:1003800050E8012FC2EA024240E801210029F7D1DA
:10039000704730B450E8022F1FFAA2F3C488A3427A
:1003A00002BFBFF32F8F00200DE0C489234484894E
:1003B000A34228BF1B1BC2EA034340E80234002CBF
:1003C000E8D14FF001000A6030BC704750E8022FBE
:1003D000C2EA224240E802210029F7D170470346D1
:1003E00053E8022FD988B2EB324F4FF0000017BF0D
:1003F00092B241EA014142EA014104E05A68B2EB9B
:10040000324F08BF012043E80212002AE8D17047AA
:1004100030B4044654E8000F0D4644E80053002B66
:10042000F8D1156030BC704730B4044654E8000F72
:1004300040EA010544E80053002BF7D1156030BCB9
:10044000704730B4044654E8000F00EA010544E860
:100450000053002BF7D1156030BC704730B4044610
:1004600054E8000F80EA010544E80053002BF7D15F
:10047000156030BC704730B4044654E8000F00EB00
:10048000010544E80053002BF7D1156030BC7047DC
:1004900030B4044654E8000FA0EB010544E80053D3
:1004A000002BF7D1156030BC704770B404464FF094
:1004B000000054E8006F0D68AE4207BF44E8002317
:1004C000012044E800630E60002B1CBF0020F0E711
:1004D00070BC704730B4044654E8000F88422CBF0B
:1004E000451A054644E80053002BF5D1156030BC91
:1004F000704700000648804706480047FEE7FEE7D1
:10050000FEE7FEE7FEE7FEE7FEE7FEE7FEE7FEE7C3
:10051000C90F0000010200002DE9F05F0546002030
:1005200092469B4688460646814640241BE0284664
:1005300041464746224600F0ABF953465A46C01A98
:10054000914110D311461846224600F016F82D1A94
:1005500067EB01084F4622460120002100F00DF80C
:1005600017EB00094E41201EA4F10104DFDC4846D0
:1005700031462A464346BDE8F09F202A04DB203A54
:1005800000FA02F1002070479140C2F1200320FAE6
:1005900003F3194390407047004870471CD0000097
:1005A00010B50446FFF7F8FF0068005D00F0010099
:1005B00010BD2DE9FE43994615468846074601AC15
:1005C000022942D3002D40D000200290A8F1010062
:1005D0004FF0FF36009022E000FB057201FB057032
:1005E00011464A469047002805DC54F8260030445E
:1005F00044F8260013E060682A4600FB057154F8B1
:10060000040C00FB057007E00B7890F800C001F8BF
:1006100001CB00F8013B521E002AF5D1764254F876
:10062000040C61688842D7DC4B462A463846FFF7FF
:10063000C0FF54F8040C4B46A8EB0001401C00FB23
:1006400005702A46491EFFF7B4FFBDE8FE8310B5CA
:10065000431A934209D28318881803E010F8011D49
:1006600003F8011D521EF9D210BD40EA01039B0799
:1006700003D009E008C9121F08C0042AFAD203E017
:1006800011F8013B00F8013B521EF9D210BDD2B265
:1006900001E000F8012B491EFBD270470022F6E76B
:1006A00010B513460A4604461946FFF7F0FF2046E8
:1006B00010BD421C10F8011B0029FBD1801A7047A5
:1006C00010B5002200E0521C835C8C5CA34201D177
:1006D000002BF8D1D8B2E1B2401A10BD034611F890
:1006E000012B00F8012B002AF9D11846704730B5CC
:1006F00005460020034600E05B1C934205D2EC5CFB
:10070000C85C201A01D1002CF6D130BD0FB400B561
:100710008DB010A909900B9000914FF0FF300A9016
:1007200000200C9005480690054807906A4609A8E5
:100730000F9900F0D1F80DB05DF814FBF50800003A
:10074000130900002DE9FF5F1D464FF0FF3BD5E97F
:10075000014691465F464FF00008A9697F1C019849
:100760008847296A824688470028F6D1BAF1FF3FB8
:100770000CD024F4C064002E19DD600614D5BAF143
:100780002B0F09D0BAF12D0F0ED103E0584604B05B
:10079000BDE8F09F44F48064A9697F1C01988847F4
:1007A000761E8246002E02DDBAF1300F03D0B9F179
:1007B000000F26D032E0A969761E44F400747F1C35
:1007C000019888478246002E05DDBAF1780F06D0E1
:1007D000BAF1580F03D0B9F1000F10D01EE0B9F1F3
:1007E000000F02D0B9F1100F18D1A969761E24F4B8
:1007F00000747F1C019888478246102002E0082080
:1008000000E00A20814609E008FB0908A969761E74
:1008100044F400747F1C019888478246002E05DD51
:100820004946504600F044F80028EDDAE96901989D
:100830008847A00502D46FF00100A8E7E00725D1A2
:10084000600613D5600502D5C8F1000000E04046FF
:1008500029680A1D2A600968220501D5087015E07B
:10086000220701D5088011E008600FE02868011D0B
:1008700029600068210502D580F8008006E0210784
:1008800002D5A0F8008001E0C0F8008038467EE77D
:10089000202A04DB203A21FA02F00021704721FAD5
:1008A00002F3D040C2F1200291400843194670473C
:1008B0003A2800D2303820F02002412A01D3A2F198
:1008C0003700884201D34FF0FF307047026811446F
:1008D0001378016018467047D1600449516104499A
:1008E000116200211161114600F036B8CD080000F8
:1008F000A1050000426842B1016811F8013B23B133
:10090000521EC0E90012184670470121C160881EBE
:10091000704742685AB1C368016843B983688B4223
:1009200005D0491E521CC0E90012002070474FF04C
:10093000FF307047064C074D06E0E06840F00103C9
:1009400094E8070098471034AC42F6D3FFF75CFCFC
:1009500008E3000028E300002DE9F34F8BB04FF0CF
:10096000000801F10C000C464FF0010B46460DF15A
:10097000080A01906269012101989047051E2DD057
:10098000252D2CD0216A8847C0B1626901210198C8
:100990009047216A88470028F7D1411E6269019873
:1009A000904700E0761CA1690B988847216A884728
:1009B0000028F7D1E1690B988847DBE7A1690B981C
:1009C00088470746A84201D1761CD3E7E1690B9816
:1009D00088477F1C02D1B8F1000F6FD046E1002795
:1009E00062693D463946019890472A2804D16269D8
:1009F0000121019890470125DFF884926269012165
:100A000001989047A0F130010A290AD24F45E5DC50
:100A100007EB870100EB4107303FDFD445F01005BD
:100A2000ECE7E90601D46FF000476C280AD04C28A7
:100A300014D0682815D06A280DD074281CD07A28C4
:100A40001AD01DE062690121019890476C2802D0FC
:100A500045F0040514E045F002050DE045F02005E1
:100A60000AE06269012101989047682802D045F0A8
:100A7000080505E045F40065626901210198904789
:100A8000C4E9015765283DD019DC58287AD00CDC20
:100A9000452837D004DC252826D0412831D131E043
:100AA00046282FD047282CD12CE05B2877D061280E
:100AB00028D063287CD0642823D15AE0D0E06F2866
:100AC00048D008DC66281DD067281BD0692821D0B3
:100AD0006E2816D127E0702845D0732868D0752875
:100AE00047D078280DD14DE0A1690B98884705467D
:100AF00025283FF469AFE1690B9888476D1C3FF4E6
:100B00006AAFB3E023466A466FF001000B99AFF37A
:100B100000809EE045F040006060A80723464FF04B
:100B2000000236D43EE0E8077FF447AF2068011D9D
:100B300021600068290501D506701BE7290701D54A
:100B4000068017E7A90703D5F117C0E9006111E78F
:100B500006600FE745F040006060A80723464FF0AD
:100B6000080216D41EE040F60E0125EA010060607E
:100B700016E045F040006060A80723464FF00A02E7
:100B800007D40FE045F040006060A80708D5234671
:100B900010226FF001000B99AFF3008059E007E0DD
:100BA000234610226FF001000B99FFF7CBFD50E0B8
:100BB0004FF000094F464B46632802D05B2806D011
:100BC00040E0E80601D40120A06001273AE0626914
:100BD0000121019890475E2805D14FF00109626913
:100BE000494601989047216939B900210A46534680
:100BF00043F82120491C0829FADBB0B3216969B9FF
:100C0000C11700EBD16253110AEB830122F01F02DE
:100C1000821A01200B68904003430B606269012136
:100C2000019890475D28E8D1B9F1000F09D0002064
:100C3000514651F82020D24341F82020401C08287A
:100C4000F7DB02AB224600976FF001000B99AFF380
:100C5000008000280CDA401C08D1BBF1000F05D041
:100C60004FF0FF300DB0BDE8F08FFFE74046F9E7E9
:100C7000E90701D108F1010806444FF0000B79E6BD
:100C8000CCCCCC0C70B58C1810F8015B15F00703B8
:100C900001D110F8013B2A1106D110F8012B03E015
:100CA00010F8016B01F8016B5B1EF9D12B0705D41D
:100CB0000023521E0DD401F8013BFAE710F8013B66
:100CC000CB1A921C03E013F8015B01F8015B521E82
:100CD000F9D5A142D8D3002070BD00002DE9FC4118
:100CE0000025DFF8948000954FF4807601242F468C
:100CF0000195304606F0EEFB38B1D8F804032042E7
:100D000003D0304606F0DCFB2543361D64007F1C13
:100D1000B6B2082FEDD34FF4BE74204606F0DAFBCE
:100D200048B1204606F0CCFB45F000456A4602215A
:100D3000002006F075FA15F0FF0F16D001260024EA
:100D40002E420ED008EB8401D1F81005D1F8101511
:100D5000C0F30520094AC1F3014152F8242002B131
:100D600090477600641C082CEAD3002D02DA68460E
:100D700009F09CFFBDE8FC81006000404C070020AA
:100D80001CB5824606F04CFF06F0D0FC0028FBD1D3
:100D900039485FEA0A05076839483A49374EA0EBF7
:100DA00001004FEAD0004FF0010808EB00447088C2
:100DB0001ED0002821D0204633A1AA6906F0F4FDF8
:100DC0007088002819D0D5E90201CDE90001D5E9E4
:100DD0000023204632A106F0FFFD708868B1E86963
:100DE0000090D5E9042320463BA106F0ECFD04E089
:100DF00018B1204642A106F0D3FD1F48001D00682F
:100E0000800705D5708818B120464A4906F0C8FD0C
:100E1000DFF82491002500BF08FA05F0384208D019
:100E200059F825202AB1708818B1204643A106F050
:100E3000BBFD6D1C1A2DEFD3380608D5708830B174
:100E40000D480C30026820463FA106F0ADFD380485
:100E500008D5708830B1084810300268204642A199
:100E600006F0A2FD0448C8300068C00700D000BEEC
:100E7000504600F087F8000028ED00E02003002035
:100E800010E4000088E300004841524420464155E8
:100E90004C54206174203078253038580000000010
:100EA000202052303A2020307825303858202052E7
:100EB000313A2020307825303858202052323A20DC
:100EC00020307825303858202052333A202030788E
:100ED000253038580000000020205231323A2030AE
:100EE000782530385820204C523A20203078253050
:100EF000385820205053523A203078253038580046
:100F0000537461636B2076696F6C6174696F6E3ABC
:100F100020737461636B20706F696E746572206FEB
:100F200075747369646520737461636B20617265A5
:100F3000612E000080D10000B00100204361757374
:100F4000653A2025732E00004D656D4D616E616719
:100F500065204661756C7420416464726573733AF0
:100F60002030782530385800427573204661756C02
:100F70007420416464726573733A20307825303888
:100F800058000000BFF34F8F05480168054A01F47F
:100F9000E06111430160BFF34F8F00BFFDE7000028
:100FA0000CED00E00400FA0510B508F0A9F9BDE861
:100FB000104007F053BF000002490248091F0968AA
:100FC00000680847A801002030B54FF08052002388
:100FD000D2E94C10082906D1CC06C4F80C31C4F86B
:100FE0001031624C2360082955D1614B1B68614C5C
:100FF00023605F4B1B1D1B68241D23605C4B083363
:101000001B68241D23605A4B0C331B68241D23606E
:10101000574B10331B68241D2360554B14331B683A
:10102000241D2360524B18331B68524C203423601C
:101030004F4B1C331B68241D23604D4B20331B6812
:10104000241D23604A4B24331B68241D2360484B16
:1010500028331B68241D2360454B2C331B68241D3B
:101060002360434B30331B68424C40342360404B79
:1010700034331B68241D23603D4B38331B68241D0B
:1010800023603B4B3C331B68241D2360384B4033AB
:101090001B68241D2360082904D1030002D1374CAA
:1010A000354B2360082904D1030002D1344CFB23C3
:1010B0002360082908D1030006D1324B92F8585218
:1010C0001C6865F303041C60082904D1030002D1E5
:1010D0002D4C8B012360082906D12C480168C907D3
:1010E00002D06FF0010101602948016841F47001EC
:1010F0000160BFF34F8FBFF36F8FD2E94C104FF0F9
:101100001022082906D1032804D9D2F80802174969
:1011100020310860D2F80002002803DBD2F8040274
:1011200000281FDA012009F0FDFC1221C2F800128C
:1011300018480368002BFCD0C2F80412016800298B
:10114000FCD0002009F0EEFCBFF34F8F10487C3834
:101150000168114A01F4E06111430160BFF34F8F50
:1011600000BFFDE70E490D48086030BD380500405E
:101170000404001020C50040488103008C56004044
:1011800018F50040E40E0040409602400004004084
:1011900088ED00E000E401400400FA050090D0036F
:1011A000B802002010B5054C206818B904A15120E0
:1011B00000F0A6FB2068BDE81040004718010020A1
:1011C0002E2E5C2E2E5C2E2E5C2E2E5C2E2E5C2E59
:1011D0002E5C6D6F64756C65735C6E7266785C64B2
:1011E0007269766572735C7372635C7072735C6E45
:1011F0007266785F7072732E630000002DE9F04113
:101200001A48D0F80453002601240FE095FAA5F0FF
:10121000B0FA80F7B80000F5807007F04DFD10B10E
:1012200004FA07F0064304FA07F08543002DEDD1D8
:10123000C6F3C05726F40005DFF834800AE000BF8B
:1012400095FAA5F0B0FA80F658F82600804704FA1F
:1012500006F08543002DF3D10AF0D6FC002F03D011
:10126000BDE8F04102F062BEBDE8F08100700240CE
:10127000C0C90000C11700EBD161074B4A1153F8F8
:10128000222021F01F01411A01208840024201D092
:10129000012070470020704700E100E002E008C82C
:1012A000121F08C1002AFAD170477047002001E0E0
:1012B00001C1121F002AFBD17047022000F080BB41
:1012C00070B50B4D686820B90AA140F2351000F0E6
:1012D00017FB002406E06868012110F8340007F0CD
:1012E00025FE641C28788442F5D3002070BD0000E0
:1012F000300100202E2E5C2E2E5C2E2E5C2E2E5CBD
:101300002E2E5C2E2E5C636F6D706F6E656E747327
:101310005C6C69627261726965735C627574746F2A
:101320006E5C6170705F627574746F6E2E63000026
:10133000F8B516460C4605460A2A01D20720F8BD24
:1013400007F066FF18B907F027FF0028F7D1134F01
:10135000202113487D603C70BE60FFF79FF900209C
:10136000C7E904000F4E0DE005EBC40031680091A1
:1013700081788DF8011000780B4A694607F052FE1B
:101380000028DCD1641EE4B2EED2BDE8F840054886
:101390000021064A001D00F0D7B8000030010020EF
:1013A000400A00205CCA0000CD430000E93700007D
:1013B0002DE9FE4314460F46804672B606F030FC17
:1013C00006F0B4F90028FBD12448254A6FF4804187
:1013D000A0EB0200204E4FEAD0004FF0010218EBC4
:1013E000010102EB00451ED07088012912D020B106
:1013F00028463A461BA106F0D7FA20480068C007E5
:1014000000D000BE224603B039464046BDE8F04356
:1014100000F062B80028F0D0D4E90032284618A1C4
:1014200006F0C9FAE9E770880028E6D0A06807F05E
:101430004FFA0346D4E90001CDE90010029728468F
:1014400016A1A26806F0D2FA70880028D5D02846E6
:101450001CA106F0A5FAD0E73403002038E4000010
:1014600088E30000554E4B4E4F574E204641554C99
:10147000542061742030782530385800F0ED00E0B9
:10148000415353455254494F4E204641494C4544DF
:101490002061742025733A25750000004552524F93
:1014A00052202575205B25735D2061742025733AD9
:1014B00025750D0A50432061743A20307825303864
:1014C00078000000456E64206F66206572726F724E
:1014D000207265706F72740008B501238DF80030BA
:1014E0009DF80030144B186059609A606FF4804189
:1014F000401807D001280FD1DA60D86800689861D9
:10150000D86807E01A61186980685861186900682E
:10151000986118694068D861186858689868D868F0
:10152000186958699869D86972B600BF9DF80000BB
:101530000028FBD162B608BD600A0020014802F015
:10154000DFB900007001002070B514460E4605009A
:1015500004D10DA140F25A2000F0D2F95CB1286804
:101560004FF0FF32012E4461C0E902220AD000216F
:101570000161002070BD04A140F25B2000F0C0F9C1
:10158000072070BD0121F3E72E2E5C2E2E5C2E2E3F
:101590005C2E2E5C2E2E5C2E2E5C636F6D706F6E3B
:1015A000656E74735C6C69627261726965735C7498
:1015B000696D65725C6170705F74696D6572322E01
:1015C0006300000038B51148082358224168009193
:1015D0000F49006804F078F8002815D10D4A6946D3
:1015E0000D4802F091F904000ED101210A4802F0E1
:1015F00084FA0123094A1946074802F037F90649D7
:10160000012008390870204638BD000064CA000077
:10161000800A00202DB0000070010020FFFF7F0035
:1016200070B516460D46040004D113A140F26B209C
:1016300000F066F9002000F07FF8D4E90201C04311
:1016400070EA010004D0002000F0A4F8002070BD72
:1016500002F0A2FE401941F10001C4E9020100209C
:1016600000F098F8A661206900B125612146BDE827
:10167000704000200AF006B82E2E5C2E2E5C2E2E16
:101680005C2E2E5C2E2E5C2E2E5C636F6D706F6E4A
:10169000656E74735C6C69627261726965735C74A7
:1016A000696D65725C6170705F74696D6572322E10
:1016B0006300000010B5040004D110A140F2932093
:1016C00000F01EF9002000F037F8D4E90201C04311
:1016D00070EA01000CD04FF0FF30C4E90200002096
:1016E00000F058F82146BDE81040012009F0CABFBB
:1016F000002000F04FF8002010BD00002E2E5C2EC0
:101700002E5C2E2E5C2E2E5C2E2E5C2E2E5C636F9D
:101710006D706F6E656E74735C6C69627261726914
:1017200065735C74696D65725C6170705F74696D1E
:101730006572322E6300000010B509F00FFC01281D
:1017400003D004A1432000F0DBF8BDE8104000F016
:101750004FB800002E2E5C2E2E5C2E2E5C2E2E5CA2
:101760002E2E5C2E2E5C636F6D706F6E656E7473C3
:101770005C6C69627261726965735C7574696C5CDA
:101780006170705F7574696C5F706C6174666F72A4
:101790006D2E630010B509F0E1FB012803D004A110
:1017A000512000F0ADF8BDE8104000F029B800006D
:1017B0002E2E5C2E2E5C2E2E5C2E2E5C2E2E5C2E63
:1017C0002E5C636F6D706F6E656E74735C6C6962B6
:1017D0007261726965735C7574696C5C6170705F6D
:1017E0007574696C5F706C6174666F726D2E6300E6
:1017F00072B602480168491C01607047A0010020D0
:1018000003490868401E086000D162B670470000B6
:10181000A001002070B5054608680C46411C04D0A4
:1018200005F027FE206805F0CFFC6068411C02D05F
:10183000002105F0B7FC2968A069C1F82405607D86
:10184000227D29681043C1F86C05D4E9001228688C
:10185000C0F81425C0F80C15207D012814D1A0680B
:10186000411C02D0002105F09DFCE068411C04D021
:1018700005F0FFFDE06805F0A7FCD4E90212286836
:10188000C0F80825C0F8101570BD70B50546086889
:101890000C46411C04D005F0F6FD206805F09EFCC6
:1018A0006068411C02D0002105F085FC2968A06910
:1018B000C1F82405607D217D2A680843C2F86C05C3
:1018C000D4E900122868C0F80C15C0F81425207D52
:1018D000012814D1A068411C02D0002105F06BFC46
:1018E000E068411C04D005F0CEFDE06805F076FC10
:1018F000D4E902122868C0F80825C0F8101570BD98
:101900001CB56A46CDE90001002144F20200FFF750
:101910004FFD1CBDF0B500220D4BCA60C1E901238B
:101920000C4B0D4D1446EE1A0A600CE003EB021549
:10193000EF683F79FF2F05D0A04202D1A868086068
:10194000F0BD641C521CB2EB161FEFD3F0BD0000BB
:1019500034CE000068E3000088E30000102802D3C2
:101960001038C0B2704740F0800070472DE9FC414C
:101970000646C0074FF000050ED0104F002401228C
:10198000385D009500231146019505F095FB641C18
:10199000042CF4D300F0D2F8B0070DD5074E002484
:1019A000361D0022305D032300951146019505F098
:1019B00083FB641C042CF4D3BDE8FC81FCC800004C
:1019C00038B50446042803D30BA15F20FFF798FF26
:1019D0001548005D0090684605F03AFCD0F80425F3
:1019E000009B0121994021EA0203C0F8083511400B
:1019F000C0F80C1538BD00002E2E5C2E2E5C2E2E4D
:101A00005C2E2E5C2E2E5C2E2E5C636F6D706F6EC6
:101A1000656E74735C626F617264735C626F617235
:101A200064732E6300000000FCC8000010B504467B
:101A3000042803D305A14720FFF762FF0F480121C7
:101A4000005DBDE8104005F028BD00002E2E5C2E84
:101A50002E5C2E2E5C2E2E5C2E2E5C2E2E5C636F4A
:101A60006D706F6E656E74735C626F617264735CCF
:101A7000626F617264732E6300000000FCC8000096
:101A800010B50446042803D305A14120FFF738FF11
:101A90000F480021005DBDE8104005F0FEBC0000CD
:101AA0002E2E5C2E2E5C2E2E5C2E2E5C2E2E5C2E70
:101AB0002E5C636F6D706F6E656E74735C626F61C8
:101AC0007264735C626F617264732E630000000065
:101AD000FCC8000038B50446042803D30AA13A2004
:101AE000FFF70EFF1448005D0090684605F0B0FB5C
:101AF000D0F804050099C84010F0010000D0012082
:101B000080F0010038BD00002E2E5C2E2E5C2E2EA3
:101B10005C2E2E5C2E2E5C2E2E5C636F6D706F6EB5
:101B2000656E74735C626F617264735C626F617224
:101B300064732E6300000000FCC8000010B5002490
:101B40002046FFF773FF641C042CF9D310BD10B5B9
:101B500000242046FFF794FF641C042CF9D310BD29
:101B600010B50246064B4FF0FF3000215C5C9442FA
:101B700001D1084610BD491C0429F7D310BD00004F
:101B800000C900002DE9F0470D468146FFF7E8FF48
:101B90000446042836D2DFF874801B481C4EA8F196
:101BA0000C0725B3012D0ED0022D2BD104EB4400E0
:101BB00030444578002D25D0B968002922D0284628
:101BC000BDE8F047084704EB4401755C0E447178AA
:101BD00049B10E4A4FF48041093A8068FFF720FD71
:101BE00008B987F80390B17808F80410E2E7806834
:101BF000FFF760FD04EB4401314418F804008D78D0
:101C0000A842D7D0BDE8F08704C9000078000020C2
:101C10002C0700200149086000207047E0000020E8
:101C200070B50023042810D20D4D00EB4004012AAA
:101C300002D101290CD00022094E00EB40003044B3
:101C400061B1012906D0022906D00723184670BDCC
:101C50000E30C2B22A55F9E74270F7E78270F5E715
:101C60002C070020012207490C2806D00E2806D098
:101C7000162801D1002008707047CA7170470A7099
:101C8000704700004C00002070B506461E48002436
:101C9000C0E90161B00720D5002501221146284680
:101CA000FFF7BEFF6D1C0446042D02D2002CF4D0B9
:101CB00013E094B940F2333204211448FFF738FBA3
:101CC00004000AD1FFF7FCFA040006D10F48104ABD
:101CD0000021001FFFF738FC0446F00712D0012056
:101CE000FFF744FE74B909480A4A00210C38FFF78F
:101CF0002BFC040006D10548074A01210838FFF7EC
:101D000023FC0446204670BD6C00002010C9000072
:101D100025200000954A0000BB1200002DE9F05F6D
:101D20006E4C054600266078B34618B184F801B0C1
:101D300002F098FE6A4F4FF47A694FF4C87A4FF078
:101D40000108182D69D2DFE805F00C131338475449
:101D5000696E727B727BC58484848484B3B6B9BC9B
:101D6000C5C502F07FFE3868FFF7A4FC06465CE0BC
:101D70000020FFF7AFFE00284FF0000008D0FFF76B
:101D800055FE022D02D14FF4E16008E0484606E01E
:101D9000FFF776FE022D01D1C82000E05046410C2D
:101DA000C0034FF47A72801841F10001257052008F
:101DB0000023FEF7B1FB01462AE00020FFF78AFE70
:101DC00000284FF0000004D0FFF730FE4FF44870B9
:101DD000E5E7FFF755FEDFE70020FFF77BFE002871
:101DE0004FF0000002D0FFF721FECFE7FFF748FEDB
:101DF000D4E70020FFF76EFE00284FF0000002D06D
:101E0000FFF714FE01E0FFF73BFE257040F6CD41E1
:101E100000223868FFF704FC064646E00020FFF782
:101E2000CFFD257008E0002051E025703DE084F8EA
:101E300001800120FFF7C4FD002240F26661E8E75F
:101E400084F801800120FFF7BBFD00224FF4005110
:101E5000DFE77868FFF72EFC0646D5F1110000D0C9
:101E60002EB10220FFF7E2FD84F802B01DE0012848
:101E700016D980B2C8214843C117C90341EA50416D
:101E8000C0034FF47A72801841F100015200002320
:101E9000FEF742FB014600227868FFF7C1FB0646C9
:101EA0000220FFF7EDFD84F802803046BDE8F09F88
:101EB00002F0D8FDB9E702F0D5FDB4E702F0D2FD9B
:101EC00004E002F0CFFD0020FFF7DAFD0120FFF76C
:101ED000D7FDAAE7FFF73BFEA7E700006C00002054
:101EE00004C900002DE9F0470546861C91460F46BF
:101EF0004FF0010A0020FFF71FFC1B4C04F21C48A6
:101F000060683860D4E90101184F401A3968081A2E
:101F10000EE00121404603F022FC03F045F80146A3
:101F2000404603F01CFCD4E90101401A3968081A44
:101F3000401C8642EDD8B9F1000F03D0052065F3AF
:101F4000891002E0062065F39F5061683A681140ED
:101F500004EB8101C8606068304460600020FFF7D6
:101F600019FC5046BDE8F087700C00203C020020B0
:101F700070B50D4604460A2902D10D21FFF7F8FF7E
:101F8000A0682268411CA1601554D4E90101814276
:101F900004D32046BDE8704004F038BF70BD000097
:101FA000044881684068814201D1012070470020C7
:101FB00070470000700C002070B5034609480021EE
:101FC0000478426806E000BF02EBC10005789D423C
:101FD00007D0491CA142F7DB03A18820FFF790FC42
:101FE000002070BD300100202E2E5C2E2E5C2E2E87
:101FF0005C2E2E5C2E2E5C2E2E5C636F6D706F6ED1
:10200000656E74735C6C69627261726965735C623F
:102010007574746F6E5C6170705F627574746F6EEE
:102020002E63000000780221FFF7ACBD05494FF098
:10203000FF32082841F8202002D3084480F85820B5
:10204000704700004C070020F0B54FF0FF3512B18B
:102050000023082601E008230C260C4C05E000BFF5
:1020600054F823707F1C04D05B1CB342F8D328467D
:10207000F0BD26185DB286F8305044F82310002ACF
:10208000F5D1E11881F85800F1E700004C07002075
:102090000249084490F93000704700004C070020C6
:1020A00070B5816804468A7F002A4DD0C87F002819
:1020B0004AD0121A0844D5B200F120016A1C1F3020
:1020C000FEF7C5FAA068C17F491EC177A068817F6D
:1020D000491E81778DB308221C49206904F056FE01
:1020E000204603F0C9FA8178C078814211D1A068F6
:1020F00017A2C17F431808212046203304F0F6F8C8
:10210000204600F03DF929462046BDE8704001F028
:1021100079BA204600F0A0F9204600F031F9A06815
:102120000BA2C17F431808212046203304F0DEF8BB
:102130002046BDE8704000F059B92069BDE8704004
:10214000044A03A104F022BE70BD00007C230000FD
:102150002573000041CC000070B504468068827F82
:10216000C17F521A12F0FF0548D0084400F1210146
:102170002A462030FEF76BFAA068817F491E8177DE
:10218000204603F079FA8178C07881420CD1A068AA
:102190001BA2C17F431808212046203304F0A6F873
:1021A00040F28F46C4B913E0204600F055F92046AE
:1021B00000F0E6F8A06812A2C17F4318082120466B
:1021C000203304F093F82046BDE8704000F00EB9CB
:1021D0000CA13046FFF794FB206918B909A13046DD
:1021E000FFF78EFB154A06A1206904F0CFFD6D1E96
:1021F000E9B22046BDE8704001F004BA70BD0000AD
:10220000257300002E2E5C2E2E5C2E2E5C2E2E5C56
:102210002E2E5C2E2E5C636F6D706F6E656E747308
:102220005C6C69627261726965735C636C695C6E37
:1022300072665F636C692E630000000045CC00008D
:102240002DE9F041044680680F46D0F84811C27F5E
:1022500011F00106817FA1EB0203DDB20BD07F29D3
:1022600001D3002D7ED0A068C17F0844002180F8F2
:10227000207066B113E07F297CD2002DF3D0831843
:1022800003F120012A46481CFEF7E1F9EBE7A068BC
:10229000827F521CD2B28277A068203281544DB323
:1022A000204603F0E9F98178C07881420ED1A06818
:1022B00031A2C17F431808212046203304F016F8CC
:1022C000A81BC1B2204601F09DF921E0204600F094
:1022D000C3F8A06828A2C17F4318082120462033F4
:1022E00004F004F8204600F081F80121204601F0B6
:1022F00063FA0DE03EB1A068827F521CD2B28277B1
:10230000A068203281543A461CA1206904F03EFDA9
:10231000A168C87F401CC877204601F060F90028FA
:10232000204603D0BDE8F04101F078B902F021F871
:1023300000281FD0204603F09FF90546C078A978F1
:10234000401A401EC1B2204601F0EAF8204601F0D2
:1023500065F9E878A978401AC1B2204601F038FA48
:10236000287800E006E0401EC1B22046BDE8F041FA
:1023700001F022BABDE8F08125730000256300005A
:1023800070B504004FF4EA7503D108A12846FFF7A1
:10239000B7FA206918B905A12846FFF7B1FA2069F4
:1023A000BDE870400F4A10A104F0F0BC2E2E5C2E48
:1023B0002E5C2E2E5C2E2E5C2E2E5C2E2E5C636FE1
:1023C0006D706F6E656E74735C6C69627261726958
:1023D00065735C636C695C6E72665F636C692E63C7
:1023E0000000000039CC00002573000070B5040027
:1023F0004FF4F07503D108A12846FFF781FA206950
:1024000018B905A12846FFF77BFA2069BDE870409E
:102410000F4A10A104F0BABC2E2E5C2E2E5C2E2E7C
:102420005C2E2E5C2E2E5C2E2E5C636F6D706F6E9C
:10243000656E74735C6C69627261726965735C630A
:102440006C695C6E72665F636C692E6300000000ED
:1024500033CC00002573000070B504004FF4ED7517
:1024600003D108A12846FFF74BFA206918B905A146
:102470002846FFF745FA2069BDE870400F4A10A1D1
:1024800004F084BC2E2E5C2E2E5C2E2E5C2E2E5C38
:102490002E2E5C2E2E5C636F6D706F6E656E747386
:1024A0005C6C69627261726965735C636C695C6EB5
:1024B00072665F636C692E630000000030CC000020
:1024C000257300002DE9F04F4FF0000995B0054647
:1024D0004F464C4600F05EFF284602F0AFF8284613
:1024E00001F02AF8284601F07AF810B9284601F0E0
:1024F00095F8AA680C2301A90EA8203202F014FF57
:1025000003460E9840B15BB14CA20221284603F06D
:10251000EDFE15B0BDE8F08F284601F07FF8F8E732
:102520004C484B490026A1EB00080DF1040A8346F4
:1025300013E008D348A000904CA202212846019B3A
:1025400003F0D4FEE5E70BEBC604606801685AF8B7
:102550002900FEF7B5F818B1761CB6EBD80FE8D90C
:10256000207820B143A140F6A510FFF7C9F900205B
:102570000F90A96848608860C86008616168C86891
:1025800028B14AC9AA68C2E90360C2E901136068B8
:1025900009F101040026D0F808800E98844235D253
:1025A0005AF8240041A1FEF78BF840B35AF82400F2
:1025B0003FA1FEF785F810B310A832460090761CB4
:1025C0000FAB2146404600F077FEFEB10F98E8B110
:1025D00001685AF82400FEF773F80028DDD10F983F
:1025E000C16839B190E84810AA682746C2E903C11A
:1025F000C2E901360026641CD0F80880CDE7A8683F
:10260000D0F8481141F00201C0F84811A8680369E8
:1026100033B10E980AEB8702C11B2846984704E0A5
:1026200025A20221284603F061FEA868D0F84811CF
:1026300021F00201C0F848116BE700006E6F7420B2
:102640007465726D696E617465643A2025630A0071
:1026500068E3000028E300003A20636F6D6D616E4F
:1026600064206E6F7420666F756E64002573257329
:102670000A0000002E2E5C2E2E5C2E2E5C2E2E5C70
:102680002E2E5C2E2E5C636F6D706F6E656E747394
:102690005C6C69627261726965735C636C695C6EC3
:1026A00072665F636C692E63000000002D68000095
:1026B0002D2D68656C700000506C6561736520732A
:1026C000706563696679206120737562636F6D6DF3
:1026D000616E642E0A0000008068D0F84801C0F3E3
:1026E000C00070472DE9F0410446C0688EB00D4629
:1026F000406800263246006801A905F0CDFB18B1FC
:1027000000200EB0BDE8F0816DB1019805F046FBE8
:10271000A168D1F83801401CC1F8380100F0070069
:1027200001287AD10126204602F0A6FF05468078CE
:10273000012804D9401EC1B2204601F049F828788A
:10274000012804D9401EC1B2204600F05BFF20469C
:10275000FFF716FE2EB132A20221204603F0C6FD7D
:102760005BE04FF000080023082202A9019805F061
:1027700025FB04980590BDF80C00ADF81800BDF8D5
:102780000E00ADF81A008DF81D800298082700F0A1
:102790000300012802D0022818D032E002983B46FC
:1027A000860AC0F3C2008DF81C00029808A9C0F385
:1027B0008315AA00019805F001FB2069009005AB84
:1027C0002A4608A9304605F03FFA1AE00298850D1E
:1027D000C0F3C2008DF81C00082D01D22E4600E087
:1027E00008263B46324608A9019805F0E7FA374427
:1027F000AD1B05AA314608A8236905F005F9002D8F
:10280000EAD1019805F0CAFAE068002201A94068FF
:10281000006805F041FB0028A5D0012071E7000009
:102820004C6F7374206C6F6773202D20696E637218
:1028300065617365206C6F67206261636B656E64B0
:102840002071756575652073697A652E0A00000030
:102850002DE9F0411E4617460D46040000D025B96B
:102860000AA140F22310FFF74BF8606820B907A1D6
:102870004FF49270FFF744F8606833463A460168B7
:102880000C692946A446BDE8F04160472E2E5C2E17
:102890002E5C2E2E5C2E2E5C2E2E5C2E2E5C636FFC
:1028A0006D706F6E656E74735C6C69627261726973
:1028B00065735C636C695C6E72665F636C692E63E2
:1028C000000000002DE9FC41002604460127019686
:1028D00001AB012269462046FFF7BAFF01980028A4
:1028E00036D09DF800007F28F2D805F0D3FAA06812
:1028F000417821B101296FD002296ED18DE09DF878
:1029000000500D2D09D00A2D07D0D0F84821002104
:1029100061F38D12C0F8482122E0D0F84811C1F3CC
:10292000871129B1D0F84811C1F38711A94217D1F5
:10293000D0F8481165F38D11C0F84811A068817F67
:1029400041B12046FFF7BEFD0221204600F0F4F819
:10295000BDE8FC81C0F84461204600F05FFEF3E76B
:10296000092D1ED004DC002DB2D0082D04D121E0A9
:102970001B2D12D07F2D26D0FDF70EFE0068405D86
:1029800010F03E0FA4D02046FFF7A6FE30B39DF80E
:1029900000102046FFF754FC9AE7A1680120487018
:1029A00096E72046FFF798FE002891D0204600F0D9
:1029B000DDF88DE72046FFF78FFE002888D02046FF
:1029C000FFF76EFB84E72046FFF786FE0028E3D082
:1029D0002046FFF7C1FB7BE716E019E0A1689DF8F0
:1029E0000020887F7F28D7D2C87F0B18401CC8776B
:1029F00083F82020A068C17F084480F82060A16887
:102A0000887F401C887763E79DF800105B2901D020
:102A1000002100E0022141705AE700214170204668
:102A2000FFF75AFE002893D09DF80000422840D0BE
:102A30001BDC33287CD012DC312872D03228ABD199
:102A4000A16803204870A068D0F84811D0F8482148
:102A500027EA010161F30002C0F8482138E7342871
:102A600056D0412898D1012124E0462853D01BDCC0
:102A7000432823D044288FD1204602F0FDFD05468F
:102A80000078A979491C884202D1A978012987D008
:102A900001284FF0010120462FD000F0B3FDA168BE
:102AA000C87F401EC87713E748283DD04C2889D1FD
:102AB000C9E70021204601F0A7FC09E7204602F003
:102AC000DBFD054600786978884203D1A978EA7869
:102AD000914298D0697988424FF00101204606D191
:102AE00000F01EFD6979204600F08CFD01E000F049
:102AF00063FEA168C87F401CD4E700F069FE6979D5
:102B0000204600F059FEA068C17F491EC177DFE66C
:102B1000A16803204870204600F00EFDD8E607E0CB
:102B2000FFE7A16803204870204600F02EFDCFE6A5
:102B3000A1680320487046E78268022911700CD111
:102B40008268002182F820108268D17782689177AC
:102B500002A20321036803F0C9BB7047257300007C
:102B6000002801D0FDF7A5BD704700002DE9F04F0A
:102B700005460020A7B0074615900646209006900F
:102B8000A868817FC1F17F01C9B25FEA010970D0F5
:102B9000C27F00F12001A030FDF759FDA868002494
:102BA000C17F084480F8A040FDF7F6FC2190016841
:102BB000A8680C23C27F0244D27F895CC0F84441DC
:102BC000AA6801F0010A07A916A8A03202F0ACFB1E
:102BD0000798FFF7C5FF00F0FF08A3461794189465
:102BE000169818B15044401EB0426CD8BAF1000F8C
:102BF00001D0002005E007A850F82600FFF7B0FF3D
:102C0000C0B28046002419A822460090641C17AB6D
:102C10003146584600F050FB179800286CD00168E8
:102C200007A8424650F8260001F008FF0028EAD025
:102C300018987F1CF0B117980068FFF791FF06996C
:102C4000C0B2884200D90690B9F1000F2ED022A858
:102C5000009018AB31465846159A00F02DFB179896
:102C60000168189801EB08020168002001EB0803D5
:102C700016E08DE0601E209017980068FFF770FF47
:102C8000C0B20690A0EB080048450FDAC0B20CE0D5
:102C900013F800C0614506D1401C10F0FF0010D0B1
:102CA000115C0029F4D1814500D98146601E159040
:102CB00017981890A7D266A20421284603F016FBA5
:102CC0001AE0FF20EFE7002419A822460090641CB8
:102CD00017AB3146584600F0EFFAECB317980028CE
:102CE00056D0016807A850F82600FDF7E9FC002837
:102CF000EAD11798D0F808B0BBF1000F09D01798A7
:102D000038B11699761CF6B201EB0A008642FFF440
:102D100067AF002F3CD0012F43D000212846069AF0
:102D200007F04CFF209C0DF11C0A19A822460090C8
:102D3000641C17AB3146584600F0BEFA179842465D
:102D400001685AF8260001F079FE40B117987F1EFD
:102D5000069A0168284600E01DE007F02FFF002FCB
:102D6000E3D146A2032128462B6803F0BFFAAB68E3
:102D700043A208212846203303F0B8FA284600F081
:102D8000E5FC18984A4601682846414400F05CFB7F
:102D900027B0BDE8F08F2EA20421284603F0A6FA42
:102DA000F6E79BF8000038B119A8009018AB31463F
:102DB0005846159A00F080FA18980068FFF7D0FE80
:102DC000404506D018984A4601682846414400F01C
:102DD0003BFB2198A9680268C87F0B1893F8203044
:102DE000D25CD20715D0897F8842D1D2284602F022
:102DF00043FC8478A868C17F491CC177284602F04B
:102E00003BFC8078A0421FD10121284600F0D4FC71
:102E1000BEE7D1F84801C00711D0D1F8480120F031
:102E20000100C1F8480120212846FFF709FAA868E7
:102E3000D0F8481141F00101C0F84811A8E720215D
:102E40002846FFF7FDF9A3E7284600F0E7FB9FE7D8
:102E50005461622066756E6374696F6E3A20636FA9
:102E60006D6D616E647320636F756E746572206F33
:102E7000766572666C6F7765642E0A000A257300AA
:102E80002573000070B505460C0004D107A140F67B
:102E90003120FEF735FD002D06D0A068D0F848118E
:102EA00041F02001C0F8481170BD00002E2E5C2EAC
:102EB0002E5C2E2E5C2E2E5C2E2E5C2E2E5C636FD6
:102EC0006D706F6E656E74735C6C6962726172694D
:102ED00065735C636C695C6E72665F636C692E63BC
:102EE0000000000070B5044640680D4690F82800C8
:102EF00030B1A0680068FEF7DDFB08B108280CD1EE
:102F0000012685B1606903F035FF61680022083150
:102F1000606903F0BDFE08B1062070BD606880F8EE
:102F20002960002070BD606890F8280048B9074A01
:102F30000021A068FEF708FB6168002881F828607E
:102F4000F0D12046BDE8704008F05EB9E9B5000058
:102F500070B5044640680D46026060680022436018
:102F6000606880F82820606880F829206068202246
:102F70000830FDF76CFB2C61074A2946606903F0B5
:102F800087FE050005D1E06805F08AFB206905F0A1
:102F900087FB284670BD000029B700002DE9F041ED
:102FA0001C0016460F46054603D106A1F820FEF781
:102FB000A7FC266022463946E868BDE8F04105F0E6
:102FC00027BA00002E2E5C2E2E5C2E2E5C2E2E5C40
:102FD0002E2E5C2E2E5C636F6D706F6E656E74733B
:102FE0005C6C69627261726965735C636C695C7563
:102FF0006172745C6E72665F636C695F7561727436
:103000002E63000010B50446406903F0B3FEA068CB
:103010000068BDE81040FEF74DBB00002DE9FC4103
:103020001D0016460F46044604D11BA14FF48670BE
:10303000FEF766FC2E602A463946206905F054FAF0
:10304000050025D16069244A0178515C19B1001D41
:1030500006F062FE02E00C3006F02AFCC0B9FF2048
:10306000009001236A4601A9206905F0B7FA78B9F2
:1030700000980199C2B2606903F06CFE0546606871
:1030800090F8290020B11DB92069009905F092FA45
:103090002846BDE8FC8100002E2E5C2E2E5C2E2ED4
:1030A0005C2E2E5C2E2E5C2E2E5C636F6D706F6E10
:1030B000656E74735C6C69627261726965735C637E
:1030C0006C695C756172745C6E72665F636C695F7B
:1030D000756172742E630000E80000202DE9F8434A
:1030E0001F4614468846050002D0B8F1000F03D1F0
:1030F0001EA1F420FEF704FC6868006818B91BA143
:10310000F520FEF7FDFB002628E000BF686808EB0D
:1031100006016B460268D2F80CC02246E04718B19F
:1031200012A1FF20FEF7ECFB0098844204D20FA10D
:103130004FF48070FEF7E4FB00980644241A68B947
:10314000A8680178032909D0D0F848118906FBD571
:10315000D0F8481121F02001C0F84811002CD5D139
:10316000002F01D000983860BDE8F8832E2E5C2E29
:103170002E5C2E2E5C2E2E5C2E2E5C2E2E5C636F13
:103180006D706F6E656E74735C6C6962726172698A
:1031900065735C636C695C6E72665F636C692E63F9
:1031A0000000000070B5084C050009D010342168FB
:1031B000002907D008682060496828468847F6E754
:1031C0000834F4E770BD000038070020054A0121EB
:1031D00020B1012805D19170FFF7E4BF51700020A4
:1031E000FAE770473807002038B5094C15462068C3
:1031F00018B908A12F20FEF783FB6A4613A168685F
:10320000FDF784FA009821680E30C0B2884738BDB7
:10321000E00000202E2E5C2E2E5C2E2E5C2E2E5CCE
:103220002E2E5C2E2E5C636F6D706F6E656E7473E8
:103230005C6C69627261726965735C6273705C6216
:1032400073705F636C692E630000000025750000D9
:1032500038B5094C1546206818B908A13920FEF781
:103260004FFB6A4613A16868FDF750FA0098216881
:10327000C0B2884738BD0000E00000202E2E5C2E32
:103280002E5C2E2E5C2E2E5C2E2E5C2E2E5C636F02
:103290006D706F6E656E74735C6C69627261726979
:1032A00065735C6273705C6273705F636C692E63DC
:1032B00000000000257500002DE9F05F1C000A9F4A
:1032C00015468846064604D121A14FF49C70FEF7AE
:1032D00017FB27B91EA140F23910FEF711FB4FF082
:1032E0000009B8F1000F0BD01EB3307838B3726804
:1032F0003946284690473868D8B12760BDE8F09F26
:1033000021492248A1EB0008B5EBD80F14D2DFF811
:1033100080A00026834609E00BEBC60778680168A9
:103320005AF82500FDF7CCF920B1761CB6EBD80F82
:10333000F2D301E0786808E0C4F80090DEE7706836
:1033400000EB051001680029F6D02060D6E70000E8
:103350002E2E5C2E2E5C2E2E5C2E2E5C2E2E5C2EA7
:103360002E5C636F6D706F6E656E74735C6C6962FA
:103370007261726965735C636C695C6E72665F63CF
:103380006C692E630000000068E3000028E3000081
:10339000BC0200202DE9F04185680646002495F81E
:1033A0002000002811D0A046FDF7F6F80746006877
:1033B00004F1200104F10104695CE4B2415CC90735
:1033C00005D0002CF4D185F82080BDE8F081641E82
:1033D00014F0FF040FD0A87F021B04F1200029186D
:1033E00005F12000521CFDF732F9B168887F001BFF
:1033F0008877B168C877B2683D68937FD0181F306E
:103400000446002102E0491CC9B2401E0778EF5D66
:10341000FF07F8D18442D8D05B1A203302F803802A
:10342000B268907F401A9077B168C877CDE710B541
:10343000D0E90234D1E90220D11AA04101D3012000
:1034400010BD002010BD00002DE9F04115460F0011
:10345000044604D123A140F25360FEF751FAA0685C
:10346000817FC27F8B1A2944DEB27F2937D8002D95
:1034700035D0104400F1200105F120021044721CE7
:10348000FDF7E5F8A0682A46C17F08443946203098
:10349000FDF7DDF8A0682030FFF762FBA1681FA2EE
:1034A0008877A068C17F431808212046203302F0A6
:1034B0001DFFA068C17F2944C177204600F08FF826
:1034C00018B9204600F055FF10B1204600F0A6F8CC
:1034D000002E04D02046BDE8F04100F037B9BDE829
:1034E000F08100002E2E5C2E2E5C2E2E5C2E2E5C8B
:1034F0002E2E5C2E2E5C636F6D706F6E656E747316
:103500005C6C69627261726965735C636C695C6E44
:1035100072665F636C692E63000000002573000013
:10352000002904D00A46006901A103F02FBC7047AE
:103530001B5B25644200000070B5054602F09CF854
:10354000044600786178884203D1A078E178884207
:103550001AD0E178A078814204D9081AC1B228466D
:10356000FFF7DEFF20786178884205D9401AC1B2A2
:10357000284600F047F804E0081AC1B2284600F0D7
:103580001BF9A868817FC17770BD70B5054602F050
:1035900073F8044601788079401C814202D1A078FA
:1035A00001281BD0A078012804D9401EC1B22846AA
:1035B00000F00EF92078A179884206D9401A401E01
:1035C000C1B2284600F01EF805E0081A401CC1B23E
:1035D000284600F0F1F8A9680020C87770BD10B542
:1035E00004460068FFF7BCFA0146A068C27F407E2F
:1035F0001144B1FBF0F200FB121008B1002010BD25
:10360000012010BD002904D00A46006901A103F081
:10361000BDBB70471B5B256444000000006901A12D
:1036200003F0B4BB0A0000002DE9FC470026044665
:103630008DF8046080683546B146B0468021A030E0
:10364000FDF72CF84049206903F0A0FB206903F046
:10365000DDFB00276B46012201A92046FFF7F8F8A1
:103660000098D8B19DF804001B2806D0A16891F8F5
:10367000A0101B29EED152281FD0A26808F1A0018A
:10368000505408F1010000F0FF08B8F1090F0AD901
:10369000A168042081F8A090BDE8FC872A494FF674
:1036A000C0101031884700980028D3D17F1CBFB2CA
:1036B000B7F57A7FCED30D20EEE7A16808F1A00020
:1036C0004A4601F80090A16891F8A1005B2803D058
:1036D00081F8A0200B20DFE702206FF02F0309E024
:1036E00005EB850503EB4505401C3D44C0B2ADB27A
:1036F000802808D200F1A007CF5D3B2FF0D1401CFD
:10370000C0B2802809D30C20C6E700BF06EB8606AE
:1037100003EB46063E44B6B2F1E700F1A007CF5DE9
:10372000002FF3D1FA20FA2E01D9087500E00E75AA
:10373000FA2D02D9A168887501E0A0688575A06896
:1037400080F8A0200020A7E751CC000070B5054606
:1037500001F092FF04468078E178884201D1012689
:1037600000E000262846FFF73AFF18B9284600F087
:1037700000FE10B12846FFF751FF1EB16078217896
:10378000401A12E0E078A178401AC1B2284600F051
:103790001FF820786178884206D9401AC1B22846BD
:1037A000BDE8704000F008B8081AC1B22846BDE86C
:1037B0007040FFF727BF0000002904D00A460069C7
:1037C00001A103F0E3BA70471B5B256443000000CE
:1037D000002904D00A46006901A103F0D7BA704756
:1037E0001B5B25644100000070B500240F4D10E004
:1037F000686800EBC406307805F09EFC71780129FA
:1038000001D0012100E000214140307800F09EFC11
:10381000641C28788442EBDBD5E90401084303D01B
:10382000BDE8704007F04ABF70BD000030010020C5
:1038300010B50021024801F0A8FF80F3100010BD70
:103840008C1000204FF4803202FA01F100F03EBCEF
:1038500000684FF4A86202EB8101405870474FF4B2
:10386000A07202EB810189B200F0DCBC2DE9F041CD
:10387000984617460E46050003D113A19620FEF781
:103880003FF84FF4A07000EB860081B228684FF437
:103890008034B44027F07F47C0F808432868C0F858
:1038A0004843286804F022FF286800EB8600C0F82F
:1038B00040752868C0F84443B8F1000F02D028686A
:1038C000C0F80443BDE8F0812E2E5C2E2E5C2E2E17
:1038D0005C2E2E5C2E2E5C2E2E5C636F6D706F6ED8
:1038E000656E74735C6C69627261726965735C7435
:1038F000696D65725C6472765F7274632E6300003A
:103900000068D0F8040570472DE9F04715460E46CB
:10391000040003D139A15520FDF7F2FF1EB937A1EC
:103920005620FDF7EDFF1DB934A15720FDF7E8FF44
:1039300060794049DFF8FC90DFF804A141F820509D
:10394000617909F1040909EBC1003B4902793B485F
:10395000081AC7084AB1BAF80200082402284AD354
:10396000022000EB074037A143E03588D4F80080FF
:10397000B5F5805F04D33CA14FF4BE70FDF7C0FFE6
:10398000C8F80855B67894F90450082E03D342A11C
:103990006B20FDF7B5FF002D4FEA461004DB05F163
:1039A000E02585F8000405E005F00F0101F1E021B4
:1039B00081F8140D94F904000121002809DB00F0BE
:1039C0001F0201FA02F24009800000F1E020C0F875
:1039D0000021627909EBC2021171617949F8314025
:1039E000BAF802000024032805D3032000EB0740A7
:1039F00035A103F0D5FF2046BDE8F0872E2E5C2EC2
:103A00002E5C2E2E5C2E2E5C2E2E5C2E2E5C636F7A
:103A10006D706F6E656E74735C6C696272617269F1
:103A200065735C74696D65725C6472765F727463F1
:103A30002E630000A401002000E4000088E30000E1
:103A40001803002052544320696E7374616E6365DD
:103A500020616C726561647920696E697469616C5A
:103A6000697A65642E0000002E2E5C2E2E5C2E2EB0
:103A70005C2E2E5C2E2E5C2E2E5C6D6F64756C653C
:103A8000735C6E7266785C68616C2F6E72665F72D2
:103A900074632E68000000002E2E5C2E2E5C2E2EED
:103AA0005C2E2E5C2E2E5C2E2E5C696E7465677209
:103AB0006174696F6E5C6E7266785C6E7266785F58
:103AC000676C75652E6800005254433A20696E6930
:103AD0007469616C697A65642E00000090F90400D5
:103AE000002809DB00F01F020121914040098000FD
:103AF00000F1E020C0F8001270470A46022100F0F1
:103B0000F7BA4FF4827100F08DBB000010B50400CD
:103B100003D104A18720FDF7F3FE20680121016095
:103B200010BD00002E2E5C2E2E5C2E2E5C2E2E5CE8
:103B30002E2E5C2E2E5C636F6D706F6E656E7473CF
:103B40005C6C69627261726965735C74696D6572DF
:103B50005C6472765F7274632E63000010B50400BB
:103B600003D104A18D20FDF7CBFE20680121416027
:103B700010BD00002E2E5C2E2E5C2E2E5C2E2E5C98
:103B80002E2E5C2E2E5C636F6D706F6E656E74737F
:103B90005C6C69627261726965735C74696D65728F
:103BA0005C6472765F7274632E6300002DE9F05FCF
:103BB0009B4615460C46060003D136A1CD20FDF7E5
:103BC0009FFE4FF4803000FA04F84FF4A07000EB31
:103BD00084001FFA80FA25F07F454146304600F008
:103BE00075FA3068D0F8047500EB8401D1F840957F
:103BF000C1F840755146306804F078FDA9EB070024
:103C000020F07F40012806D1102005F087F95146A9
:103C1000306804F06BFD3068D0F80475C0F8448358
:103C2000E91B21F07F423068012A00EB840010D0AC
:103C3000C0F840553068D0F804156FF07F476A1A15
:103C4000521E22F07F42A7EB0B03934217D362B1BF
:103C500018E06D1CC0F84055102005F05FF9306881
:103C6000D0F80405B8420AD10CE000EB84006D1CCA
:103C7000C0F840553068D0F80405884202D00D20C5
:103C8000BDE8F09F01224146304600F031FA0020A5
:103C9000F6E700002E2E5C2E2E5C2E2E5C2E2E5C67
:103CA0002E2E5C2E2E5C636F6D706F6E656E74735E
:103CB0005C6C69627261726965735C74696D65726E
:103CC0005C6472765F7274632E63000010B5044604
:103CD000010600F00F00092804D3064940F2B52080
:103CE000FDF70EFE6FEA0460C10F204661F31F105E
:103CF00010BD000094BD000010B50D4C012802D08D
:103D000060B1072010BD812006F0B4F9812006F0D3
:103D1000A3FA812006F0D2F9012003E0812006F009
:103D200079F90020607006F07FFD002010BD0000D2
:103D30004C00002070B50546000605F00F0402D5C2
:103D4000092C09D301E0092C08D307A140F2A220D5
:103D5000FDF7D6FD280601D5114801E0104890383E
:103D600000EB041070BD00002E2E5C2E2E5C2E2E5B
:103D70005C2E2E5C2E2E5C2E2E5C6D6F64756C6539
:103D8000735C6E7266785C647269766572735C737C
:103D900072635C6E7266785F757362642E63000096
:103DA0009808002010B50446010600F00F0009280D
:103DB00004D3034940F28520FDF7A2FD204610BD43
:103DC00094BD000004F0AABD812004F021BE822031
:103DD00004F01EBE832004F01BBE842004F018BE35
:103DE000852004F015BE862004F012BE872004F062
:103DF0000FBE882004F05ABE38B507F0F7FE002049
:103E0000FFF798FF817B0124032906D0006870B179
:103E1000BDE838404C2004F071BF0020FFF756FF8A
:103E20008440E143BDE83840094804F07BBF0020EE
:103E3000FFF74CFF8440E143054804F073FF054859
:103E40000349C0680C39009049686846884738BD06
:103E50002C0100208CC90000012004F095BE022036
:103E600004F092BE032004F08FBE042004F08CBE48
:103E7000052004F089BE062004F086BE072004F069
:103E800083BE000038B5082407F0B0FE2046FFF7D7
:103E900051FF817B032915D00068002812D12046EC
:103EA000FFF714FF01218140C943074804F03AFF9E
:103EB00006480549406900900C398DF80240496870
:103EC0006846884738BD00002C0100208CC90000DE
:103ED00070B50E4804680460BFF36F8FBFF34F8F57
:103EE00001260CE094FAA4F0B0FA80F52846FDF71C
:103EF00035FD06FA05F18C43294608F057F8002CE9
:103F0000F0D1BDE8704007F07FBE00006C74024045
:103F100010B5054CA078FFF7D9FE0146A078BDE8A2
:103F2000104008F043B8000020010020F8B51A48FE
:103F300000681A4DC6B2A878FFF7C8FE012404FA3B
:103F400000F12889EA68C04380B21043014202D0E0
:103F5000A87807F085FF06F08000A8700020FFF722
:103F6000B5FE04FA00F68020FFF7B0FE04FA00F078
:103F700006430A48F1430C3004F0D4FE8020FFF7DA
:103F8000A5FE8440A86804430548AC60006A009020
:103F9000696868468847F8BD8074024020010020A7
:103FA0008CC9000038B5002000900E480068ADF8BC
:103FB00002008820FFF78AFE012505FA00F4082098
:103FC00004F0B6FD401C04D00820FFF77FFE8540BA
:103FD0002C430549886820438860496868468847BB
:103FE00038BD00002075024020010020704700000D
:103FF000F8B51C480568284604F06EFEBFF36F8FC5
:10400000BFF34F8F184E194CE80506D5012060709C
:10401000706A0090616868468847A8054FF00007FD
:1040200005D56770B06A0090616868468847680582
:1040300016D56078002813D004F058FE20B10CA1EA
:1040400040F2F540FDF75CFC6770174901200860FD
:10405000582004F053FEF06A009061686846884773
:10406000F8BD0000007402408CC90000200100204F
:104070002E2E5C2E2E5C2E2E5C2E2E5C2E2E5C2E7A
:104080002E5C6D6F64756C65735C6E7266785C64D3
:104090007269766572735C7372635C6E7266785F68
:1040A000757362642E63000008750240054908B507
:1040B000002048708870044840680090496868464D
:1040C000884708BD200100208CC9000070B50C464F
:1040D000050003D10549B320FDF712FC2868C0F89C
:1040E00048432868C0F8084370BD00001441000030
:1040F00070B516460C46050003D106A1A920FDF7B0
:10410000FFFB2868C0F84443002E02D02868C0F89E
:10411000044370BD2E2E5C2E2E5C2E2E5C2E2E5C4B
:104120002E2E5C2E2E5C636F6D706F6E656E7473D9
:104130005C6C69627261726965735C74696D6572E9
:104140005C6472765F7274632E6300002DE9F04741
:104150000E463249804601EB5001C007097801D074
:104160000F0901E001F00F07424601200021FCF792
:1041700004FADFF8AC9004460D46052F4BD2DFE879
:1041800007F0031419262A00002E44D001214046CE
:1041900007F0C6F80020FDF7CFFA4846D0E9041230
:1041A0000C431543C9E9044530E00EB1022114E087
:1041B000002112E04EB10321404607F0B1F840461D
:1041C000BDE8F047012108F089BA012105E0002E81
:1041D00021D1042101E02EB103214046BDE8F04782
:1041E00007F09EB80021404607F09AF800214046AB
:1041F00008F074FA0020FDF79FFA4A46E043D2E93E
:104200000434184024EA0501C9E90401BDE8F04777
:104210000020FDF7BFBABDE8F0870000400A00208B
:104220003001002070B50C46050003D106A1BA206C
:10423000FDF766FB2868015921B1214604F056FAC2
:10424000012070BD002070BD2E2E5C2E2E5C2E2E07
:104250005C2E2E5C2E2E5C2E2E5C636F6D706F6E4E
:10426000656E74735C6C69627261726965735C74AB
:10427000696D65725C6472765F7274632E630000B0
:104280002DE9F05F17460E00814670D013B1F9B2E8
:10429000FFF792FA0024FCF77FF98246006800E0FD
:1042A000641C315D415CC907FAD100253046FEF738
:1042B00057FCD9F80810001B4A7ED11B814228D335
:1042C00006EB040805E000BF18F805100A290CD019
:1042D0006D1C8542F8D33119D9F8100002F056FD53
:1042E0004846BDE8F05FFFF799B9D9F8100002F031
:1042F0008DFD414600232A464846FEF7EFFE2C443A
:104300004846641CFFF78AF9F9B24846FFF754FAA9
:10431000E1E78B46DAF8001006EB040818F8050010
:104320000B5CDB0702D0AB460A2804D0E8199042A8
:1043300001D26D1CF2E7D9F8100002F067FD41468A
:1043400000235A464846FEF7C9FE5C44DAF80000EE
:1043500000E0641C315D415CC907FAD14846FFF7B3
:104360005DF9F9B24846FFF727FA9EE7FFE7BDE897
:10437000F09F10B504460068FEF7F2FB0146A06806
:10438000827F407E1144B1FBF0F200FB121008B1B5
:10439000002010BD012010BD10B50B48FFF7B0FA8A
:1043A000094A083AD2E90434C018D2E9063244F185
:1043B0000001C31A71EB020204D24FF08072801820
:1043C00041F1000110BD00007001002010B5C0B225
:1043D000FDF7F2FD0446007804F0AEFE0146607879
:1043E000012801D0012000E0002090EA010F08D050
:1043F0000449D1E90401084303D1BDE8104007F0A6
:104400005DB910BD30010020FEB5002604460096BF
:10441000019602968068E9B3D0E950128A4272D0C0
:10442000D0F83C0100286ED02046FFF7AEF8A06817
:10443000D0F84451002D69D000230922694628464E
:1044400003F0BCFCA1689DF808500098C1F8440135
:10445000A06800230922D0F84401694603F0AEFCAD
:10446000A1689DF808200923D1F844012031521C8D
:1044700003F0A4FCA1689DF80800C877A1689DF826
:10448000080088779DF80800A84202D22046FDF770
:1044900077FF00E00BE0A3682BA208212046203321
:1044A00001F024FF2046FFF79AF868BB43E0D0F8FC
:1044B0004401002847D02046FFF767F8A068002392
:1044C0000922D0F84401694603F078FCA0680199FC
:1044D000C0F84411A0680029857FB9D1A030FEF74B
:1044E0003FFB0028A06805D000F1A0012030FCF7B8
:1044F000F5F801E080F82060A0682030FEF730FB7E
:104500008DF80800B6E71EE01AE0FFE72030FEF75E
:1045100027FB10F0FF05A068D0F83C11C0F844114B
:10452000A06805D000F12001A030FCF7D7F88FE794
:1045300080F8A0608CE72046FFF71BFF002802D020
:104540002046FFF76BF8FEBD25730000FEB50D0099
:10455000044604D11E4940F2AA50FDF7D1F9A168E2
:104560000026D1F83C0138B300230922694603F044
:1045700025FC0195A06800230922D0F83C0169467A
:1045800003F04CFC0196A068D0F83C110091807FAC
:104590008DF80800A068C0F83C5100230922694644
:1045A000284603F03BFCA168092328468A7F203176
:1045B000521C03F033FCFEBDC1F83C51A068C0F8AA
:1045C000405100960196A068807F8DF80800E4E7CE
:1045D000E0B40000FEB504468068D0F84061002ECB
:1045E00028D0002309226946304603F0E7FBA16882
:1045F00001980025C1F84001009501952B4609223C
:1046000069463046029503F009FC304603F0A7FBEB
:10461000A168D1F8400170B100230922694603F076
:10462000CDFB0095A06800230922D0F8400169461F
:1046300003F0F4FBFEBDC1F83C51FEBDFEB50446DF
:1046400080682030FEF78CFA10F0FF05A0684FF06C
:104650000006C0F8446133D0A068D0F83C01E0B156
:1046600000230922694603F0A9FB9DF80820AA420D
:1046700013D1A068092300F1A001D0F83C01521C1D
:1046800003F09CFBA06800F1A0012030FCF718F8B3
:104690000028A06880F8A06012D000260A352946BC
:1046A000606903F02CFB0100204604D003B0BDE894
:1046B000F040FFF74BBFFFF78DFF761C082EEED3BF
:1046C000FEBD000010B512490220FDF7DDFA20B151
:1046D000104A40F25341FBF70FFE0C22002101204B
:1046E000FDF79EFA20B10B4A40F25941FBF704FE58
:1046F000002116220846FDF793FA002806D0BDE8EF
:104700001040044A40F25D41FBF7F6BD10BD0000C9
:10471000651C0000E447000000B589B01848FDF7AB
:1047200079FA20B1174A40F26641FBF7E5FD2022F5
:10473000154901A8FBF78BFF062001900820029085
:1047400000208DF81800032000900F4801231A461E
:1047500001A9F83801F098FF20B10A4A40F26C41F3
:10476000FBF7CAFD0848F83802F0E4F8002804D046
:10477000044A40F26E41FBF7BFFD09B000BD0000E6
:10478000651C0000E4470000DCC8000010B502F022
:10479000B9F920B113A240F23D41FBF7ADFD002075
:1047A00002F050FA20B10FA240F23F41FBF7A4FD06
:1047B000002002F055F9002002F0F2F902F01AF997
:1047C0000028FBD002F0BCF90028F7D0FCF7FAFE75
:1047D000002806D0BDE8104002A240F24941FBF794
:1047E0008BBD10BD2E2E5C2E2E5C2E2E5C6D616955
:1047F0006E2E63002DE9FC5F0E008346DDE90C4759
:10480000C6F1000098469246814600D4084601252C
:1048100003E000BF90FBFAF06D1C5045FADAA845A2
:1048200000D9454624B1002E01DB780700D5641E6F
:10483000B80702D5B8F1000F0AD0F80708D13CB18B
:10484000A54205D220215846641EFDF791FBF6E7EC
:10485000002E02DA4E462D2102E0780703D52B21E7
:104860005846FDF785FB07F0030002280BD1B8F18D
:10487000000F08D13CB1A54205D230215846641E34
:10488000FDF776FBF6E7CDE9004743465246314651
:10489000584607F051F9BDE8FC9F000070B50E4680
:1048A000054600684FF48E7104F021F84FF4A271B0
:1048B000286804F01CF828681549C0F80413286813
:1048C000082E40F3073403D312A16B20FDF718F82C
:1048D0007007000E002C04DB04F1E02484F80004CF
:1048E00005E004F00F0101F1E02181F8140D2868C2
:1048F00040F30730002809DB00F01F02012191403E
:104900004009800000F1E020C0F8001170BD0000F7
:10491000800002002E2E5C2E2E5C2E2E5C2E2E5C35
:104920002E2E5C2E2E5C696E746567726174696FE1
:104930006E5C6E7266785C6E7266785F676C7565C9
:104940002E68000070B50E46044600684FF488716A
:1049500003F0DEFF4FF49071206803F0D9FF4FF4AD
:104960009271206803F0D4FF4FF4A271206803F025
:10497000CFFF4FF4AC71206803F0CAFF20681549DF
:10498000C0F804132068082E40F3073503D312A1A2
:104990006B20FCF7B5FF7007000E002D04DB05F15E
:1049A000E02585F8000405E005F00F0101F1E021A4
:1049B00081F8140D206840F30730002809DB00F06F
:1049C0001F02012191404009800000F1E020C0F861
:1049D000001170BD100342002E2E5C2E2E5C2E2E78
:1049E0005C2E2E5C2E2E5C2E2E5C696E74656772BA
:1049F0006174696F6E5C6E7266785C6E7266785F09
:104A0000676C75652E680000024600201268530727
:104A100013D502F00300012802D002280CD105E0D2
:104A2000C2F383100B68801C184404E0022308685A
:104A300003EB9252104408600120704710B5FBF759
:104A400056FE08B1002010BD012010BD02681346BB
:104A500002E08A4204D01268002AFAD10B60016099
:104A6000704700000A4810B5807860B1002401E06A
:104A7000022C06D02046FCF7D9FF641C042CF7D387
:104A800010BD0324F6E7BDE81040FDF757B800005D
:104A90006C00002003480179C90702D00078FDF7B7
:104AA0003DB970476C000020014B01F01FB80000B9
:104AB000754C0000014B01F019B80000414E000098
:104AC000014B01F013B80000494E0000014B01F00A
:104AD0000DB800005D5000007CB514460546012964
:104AE00002D001F0CBFD38B102B02846BDE87040DD
:104AF0000022114601F058BC616805A0CDE9000113
:104B000009A202212846236801F0F0FB7CBD0000C9
:104B100020756E6B6E6F776E20706172616D65745B
:104B200065723A200000000025733A257325730D45
:104B30000A0000002DE9FC41074601F09FFD38B155
:104B400002B03846BDE8F0410022114601F02CBC0D
:104B50001248134E801B050900241AE006EB0410CE
:104B6000C2681179FF2903D0527942B10DA207E042
:104B700083680EA20821384601F0B8FB08E013A2B2
:104B8000CDE90021836814A20821384601F0AEFB6C
:104B9000641CAC42E2D3BDE8FC81000088E3000065
:104BA00068E30000656E61626C65640025730D0A40
:104BB000092D205374617475733A206465616374C0
:104BC0006976617465640D0A0D0A00006469736199
:104BD000626C65640000000025730D0A092D2053E6
:104BE00074617475733A2025730D0A092D204944A8
:104BF0003A2025640D0A0D0A0000000010B5044695
:104C000001F03CFD30B120460022BDE810401146C5
:104C100001F0CABB2046BDE8104002A2022101F00B
:104C200065BB00004E6F7420737570706F72746591
:104C3000642E0D0A0000000010B5044601F01EFDB0
:104C400030B120460022BDE81040114601F0ACBB57
:104C50002046BDE8104002A2022101F047BB00003F
:104C60004E6F7420737570706F727465642E0D0AC8
:104C7000000000002DE9FF4FC86881B01D46007993
:104C800017004FF00006009057D0072245A1286872
:104C9000FBF72DFD78B1082244A12868FBF727FD1A
:104CA00000282FD02B6843A2019805B00221BDE84F
:104CB000F04F01F01BBB012F02D0022F08D008E0FB
:104CC000019805B041A2BDE8F04F022101F00EBBF2
:104CD0000126DFF8108100240A2258F824106868A1
:104CE000FBF705FD10B1641C052CF5D3052C06D08F
:104CF00004F0FF090224002E51D0002419E03AA24A
:104D00006B68D1E7012F4FF00009F6D0012446E08F
:104D10004A462146009800F049FC48B90021204647
:104D200002F070FF034638A20221019801F0DEFA7A
:104D3000641C02F011FFA042EAD805B0BDE8F08F74
:104D40004FF0000A55F824B002F006FF8046002616
:104D500009E00021304602F055FF20225946FBF7BA
:104D6000C6FC58B1761C4645F3D3464508D04A46A2
:104D70005146009800F01AFC30B10FE0B246F4E75B
:104D800055F8243029A205E00021504602F03AFFF0
:104D900003461DA20221019801F0A8FA641CBC423E
:104DA000CED3CAE7656E61626C65000064697361A9
:104DB000626C6500556E6B6E6F776E206F707469F4
:104DC0006F6E3A2025730D0A0000000042616420D6
:104DD000706172616D6574657220636F756E742E9B
:104DE0000D0A000040020020556E6B6E6F776E203A
:104DF0007365766572697479206C6576656C3A20A6
:104E000025730D0A000000004C6576656C20756EF8
:104E1000617661696C61626C6520666F72206D6F8E
:104E200064756C653A2025730D0A0000556E6B6E33
:104E30006F776E206D6F64756C653A25730D0A008F
:104E4000C968012048717047C968002048717047DF
:104E50007047000070B52D4805682E482E4A2C4E2C
:104E6000801AC0087188032202EB0044032903D38F
:104E700020462AA102F094FD35B97088032803D397
:104E800020462AA102F08CFDE80706D0708803288E
:104E900003D3204627A102F083FDA80706D570881A
:104EA000032803D3204626A102F07AFD680706D521
:104EB0007088032803D3204623A102F071FD280740
:104EC00006D57088032803D3204621A102F068FD8F
:104ED000E80306D57088032803D320461FA102F0FB
:104EE0005FFD680306D57088032803D320461DA103
:104EF00002F056FDE80208D57088032805D3204645
:104F0000BDE8704019A102F04BBD70BD0004004027
:104F10003403002038E4000088E300005265736524
:104F20007420726561736F6E733A00002D204E4FCE
:104F30004E4500002D20524553455450494E000027
:104F40002D20444F470000002D20535245510000B2
:104F50002D204C4F434B5550000000002D204F4654
:104F6000460000002D204449460000002D205642F6
:104F70005553000030B41346C4680A46214630BC7D
:104F8000FFF778BEC0680121C06841717047C068F2
:104F90000021C0684171704730B41346C4680A46A6
:104FA000214630BC00F05AB82DE9FF4100262748C1
:104FB00000F0CFFB2548001F074600F0CAFB244C39
:104FC0002449A06800900D6800E0009869462840D8
:104FD00004EB80000C30FFF717FD0028F5D101AA83
:104FE000009901EA050304EB8303491CDB6842F8DE
:104FF0002030401C00910228F2D3019800F00300F9
:1050000001281AD002280ED013494FF4C270FCF7C1
:1050100077FC384600F09AFB08B10098A06004B015
:105020003046BDE8F0810198032101EB90500099D2
:10503000BDF80A6001EB900005E00198BDF80A6038
:10504000C0F3831008440090E3E7000088100020BC
:10505000700C00203C0200200CDE00002DE9FE4F09
:105060008846824602F078FD0746D8F80C00407961
:1050700020B922A20221504601F038F924A327A228
:105080000821504601F032F92CA20821504601F0C7
:105090002DF900242DE000BFD8F80C0001231A469A
:1050A00005792146284602F061FD81460023012250
:1050B0002146284602F05AFD0546032801D206463D
:1050C00000E003260121204602F09CFD0346AE428B
:1050D00001D22AA200E028A2294850F8261050F850
:1050E00029008DE8070027A20821504601F0FEF8AC
:1050F000641CBC42D0D3BDE8FE8F00004C6F6773C8
:10510000206172652068616C746564210D0A00007D
:105110006D6F64756C655F6E616D6500252D343053
:1051200073207C2063757272656E74207C206275BA
:10513000696C742D696E200D0A0000002D2D2D2D37
:105140002D2D2D2D2D2D2D2D2D2D2D2D2D2D2D2D8F
:105150002D2D2D2D2D2D2D2D2D2D2D2D2D2D2D2D7F
:105160002D2D2D2D2D2D2D2D2D2D2D2D2D2D2D2D6F
:105170002D2D2D2D2D2D0D0A000000002A000000E0
:1051800040020020252D343073207C20252D3773DC
:10519000207C20257325730D0A0000004FF4804108
:1051A000002002F089FCFFF7F1FAFFF78BFAFFF716
:1051B000B3FA43484349414E401AC008728803215C
:1051C00001EB0045032A03D328463FA102F0E8FB88
:1051D000FFF740FE424908680860424805F0ACFA13
:1051E00020B141A240F2B341FBF786F840210020F4
:1051F00004F0B4FF4021802004F0B0FF0120FCF750
:10520000B5FB0220FCF73CFC0320FCF739FC3A48D4
:1052100001F02CFD20B134A240F2C641FBF76CF83E
:10522000364CE079B8B17088032803D3284634A1FE
:1052300002F0B6FB02F07AFA0028FBD10220FCF75C
:10524000F5FB0320FCF7F2FB324901200860BFF3B5
:105250004F8F20BFFDE7A078A17988420AD0A079BE
:1052600030B105F0A9FBA07020B1FCF767FC01E0AC
:105270000020A070607888B1207878B1A07820B143
:10528000E07858B105F024FC08E07088032803D3C7
:10529000284621A102F084FB00F0C2F91648001D47
:1052A00001F0E2FA02F042FA0220FCF7BFFB20BF55
:1052B00040BF20BF0220FCF7E3FBB2E7340300202D
:1052C00038E4000088E300005553444220657861CB
:1052D0006D706C6520737461727465642E000000DB
:1052E0000004004071C000002E2E5C2E2E5C2E2E7D
:1052F0005C6D61696E2E6300E0C700004C00002009
:10530000476F696E6720746F2073797374656D20C1
:105310004F46460000050040202020545820706F62
:10532000696E7465720000002DE9FF4F4FF00008B0
:1053300081B014468B468146C246C0F8008025786D
:10534000002D71D0FBF728F900900068405DC00780
:1053500002D004F801AB84E0D9F800008300401CBF
:10536000C9F800004BF8034015E02678002E78D0ED
:10537000B8F1000F05D1222E10D0272E0ED05C2EB2
:105380001ED0B04514D12046FDF7EAFB0246611C51
:105390002046FBF75CF94FF00008E6E72046FDF7F2
:1053A000DFFB0246611C2046FBF751F9B046DCE703
:1053B000B8F1000F50D05C2E6AD16078404508D11A
:1053C0002046FDF7CDFB0246611C2046FBF73FF966
:1053D0005EE030281CD100270225605DA0F130017D
:1053E000072906D86D1C41EAC701EDB2CFB2052DE1
:1053F000F3D3022D0CD92046FDF7B2FB421B6119F5
:105400002046491E921CFBF722F904F8017BACE709
:1054100078281ED100270225605DA0F130010929FE
:1054200003D841EA07100DE021E0A0F16101052950
:1054300001D8573804E0A0F14101052907D83738D1
:1054400040EA07106D1CEDB2C7B2042DE4D3022D63
:10545000D1D8B8F1000F1BD100980068805DC0075B
:1054600016D0D9F8001004988142FFF468AFD9F83B
:1054700000000C2804D907A140F22A50FCF740FA9A
:10548000D9F8002040464BF822A005B0BDE8F08FC7
:10549000641C6AE72E2E5C2E2E5C2E2E5C2E2E5C5B
:1054A0002E2E5C2E2E5C636F6D706F6E656E747346
:1054B0005C6C69627261726965735C636C695C6E75
:1054C00072665F636C692E63000000002DE9F05F77
:1054D0001E46DDF828B091468A46040003D124A177
:1054E000B620FCF70DFAB4F80680607908FB00F8E6
:1054F000A8F10408464503D31DA1C420FCF700FA17
:10550000E788301DB0FBF7F1B0FBF7F207FB1200A4
:10551000D9F80050AA19424501D9A8EB0605C9F8E7
:10552000005001E02468491E0029FBD13E1A88463C
:10553000AE4215D817E000BF2044001D0AEB080357
:10554000BBF1000F324602D00146184600E0194672
:10555000FBF77DF800202468AD1BB044AF4201D9B1
:105560002E4600E03E46002DE6D1BDE8F09F00004B
:105570002E2E5C2E2E5C2E2E5C2E2E5C2E2E5C2E65
:105580002E5C636F6D706F6E656E74735C6C6962B8
:105590007261726965735C6D656D6F626A5C6E7273
:1055A000665F6D656D6F626A2E63000070B51446AC
:1055B00000230D4606461A4602F0D8FA844201D965
:1055C000002070BD22462946304602F0F3FA012041
:1055D00070BD000030B5024651B102F0BDFA0021A5
:1055E000074C08E034F821301568AB4202D1116055
:1055F000002030BD491C8142F4D3052030BD00009D
:10560000DC02002010B50C460021E1606160034916
:10561000A160012102F0F6FA206010BD2CCE00003E
:1056200013484178002922D0417900291FD10179FE
:1056300011F0030106D0012907D0022908D003295F
:105640000CD108E04FF4206107E04FF4202104E082
:105650004FF4764101E04FF47601C1600179491CB5
:105660000171012141710349812004F089BE704715
:105670004C000020D0C8000070B58468006804F1B8
:105680001405FDF76DFAC1B2A971E07F6A7908448B
:10569000B0FBF2F302FB13035B1C2B70E07F0844AA
:1056A000B0FBF2F35B1CAB70A07F0844B0FBF2F3DD
:1056B0005B1CEB70A07F0844B0FBF2F102FB110110
:1056C000491C6970284670BD10B531B1B2FBF3F4C6
:1056D00003FB14241CB1092010BD0E2010BD016075
:1056E0000021416081608281C381084610BD70B590
:1056F0000C460546FAF728FE002802D021882868C3
:10570000084470BD10B50A8849888A4203D1FAF767
:105710005DFE012010BD002010BD70B50C46054691
:10572000FAF737FE002802D061882868084470BD67
:1057300010B50A8849888A4203D1FAF721FE012070
:1057400010BD002010BD002100F00FB8002100F0B6
:1057500012B8012100F01EB8012100F011B808B5FF
:105760006A46FAF788FE009808BD08B56A46FAF757
:1057700068FE009808BD08B56A46FAF762FE08BDE3
:1057800008B56A46FAF750FE08BD08B56A46FAF74A
:105790003FFE08BD08B56A46FAF746FE009808BD08
:1057A00008B56A46FAF774FE009808BD70B50400A3
:1057B00004D114A14FF49270FCF7A2F800252846FA
:1057C000FBF7BAFF206862680168914214D9491E4C
:1057D00001600D781CB91AA1E820FCF791F8208B24
:1057E000E16805FB00152068217A0278891A0279A0
:1057F000C9B28A4200D201710020FBF7CBFF2846D4
:1058000070BD00002E2E5C2E2E5C2E2E5C2E2E5C8B
:105810002E2E5C2E2E5C636F6D706F6E656E7473D2
:105820005C6C69627261726965735C62616C6C6FF9
:10583000635C6E72665F62616C6C6F632E63000006
:105840002E2E5C2E2E5C2E2E5C2E2E5C2E2E5C2E92
:105850002E5C636F6D706F6E656E74735C6C6962E5
:105860007261726965735C62616C6C6F635C6E72AD
:10587000665F62616C6C6F632E63000070B50C46EE
:10588000050004D110A140F24710FCF739F824B903
:105890000DA14FF4A470FCF733F80020FBF74CFF88
:1058A0001DB91849F520FCF72BF8E8682A68211A79
:1058B000288BB1FBF0F11068431C13600170BDE848
:1058C00070400020FBF766BF2E2E5C2E2E5C2E2E25
:1058D0005C2E2E5C2E2E5C2E2E5C636F6D706F6EB8
:1058E000656E74735C6C69627261726965735C6227
:1058F000616C6C6F635C6E72665F62616C6C6F632F
:105900002E6300004058000010B5040002D020684B
:1059100030B901E00E2010BD19A1FF20FBF7F0FF08
:10592000606820B916A14FF48070FBF7E9FFA0680A
:1059300020B913A140F20110FBF7E2FFE06820B9A3
:105940000FA14FF48170FBF7DBFF208B20B90CA176
:1059500040F20310FBF7D4FF207A61682268401AF6
:10596000C0B2116004E0226811684B1C136008701B
:10597000401EC0B2F7D221680020087110BD00009F
:105980002E2E5C2E2E5C2E2E5C2E2E5C2E2E5C2E51
:105990002E5C636F6D706F6E656E74735C6C6962A4
:1059A0007261726965735C62616C6C6F635C6E726C
:1059B000665F62616C6C6F632E6300002DE9F04FCF
:1059C0008146806889B0D0F84801C0F3400038B102
:1059D00009B04846BDE8F04F0022114600F0E4BC93
:1059E000012907D909B04846BDE8F04F24A2022199
:1059F00000F07CBC27492848081A1C21B0FBF1F8AC
:105A0000002538E02448C5EBC50110EB81044FF0B8
:105A1000000AB4F818B0D4E90101A1EB000604D1E2
:105A20001EA140F24510FBF76BFF2068077924B9EF
:105A30001AA140F25510FBF763FF2068217A007825
:105A4000081AC0B2642117FB01F1B1FBF6F2642120
:105A500010FB01F1B1FBF6F16369CDE90210CDE96C
:105A60000462CDE90676CDE900BA1B4A0821484612
:105A700000F03CFC6D1C4545C4D309B0BDE8F08F77
:105A800042616420617267756D656E7420636F7525
:105A90006E74000078E4000040E400002E2E5C2EBE
:105AA0002E5C2E2E5C2E2E5C2E2E5C2E2E5C636FBA
:105AB0006D706F6E656E74735C6C69627261726931
:105AC00065735C62616C6C6F635C6E72665F626171
:105AD0006C6C6F632E68000014D60000C20800F0E2
